{
	"playground2.sol": {
		"Owner": {
			"abi": [
				{
					"inputs": [],
					"stateMutability": "nonpayable",
					"type": "constructor"
				},
				{
					"inputs": [],
					"name": "getInfo",
					"outputs": [
						{
							"internalType": "string",
							"name": "",
							"type": "string"
						}
					],
					"stateMutability": "view",
					"type": "function"
				},
				{
					"inputs": [],
					"name": "owner",
					"outputs": [
						{
							"internalType": "address",
							"name": "",
							"type": "address"
						}
					],
					"stateMutability": "view",
					"type": "function"
				},
				{
					"inputs": [
						{
							"internalType": "string",
							"name": "myInfo",
							"type": "string"
						}
					],
					"name": "setInfo",
					"outputs": [],
					"stateMutability": "nonpayable",
					"type": "function"
				}
			],
			"devdoc": {
				"author": "Solange Gueiros",
				"kind": "dev",
				"methods": {},
				"title": "Concepts: Type address, msg.sender, owner, if",
				"version": 1
			},
			"evm": {
				"assembly": "    /* \"playground2.sol\":143:971  contract Owner {... */\n  mstore(0x40, 0x80)\n    /* \"playground2.sol\":294:343  constructor() {... */\n  callvalue\n  dup1\n  iszero\n  tag_1\n  jumpi\n  0x00\n  dup1\n  revert\ntag_1:\n  pop\n    /* \"playground2.sol\":326:336  msg.sender */\n  caller\n    /* \"playground2.sol\":318:323  owner */\n  0x01\n  0x00\n    /* \"playground2.sol\":318:336  owner = msg.sender */\n  0x0100\n  exp\n  dup2\n  sload\n  dup2\n  0xffffffffffffffffffffffffffffffffffffffff\n  mul\n  not\n  and\n  swap1\n  dup4\n  0xffffffffffffffffffffffffffffffffffffffff\n  and\n  mul\n  or\n  swap1\n  sstore\n  pop\n    /* \"playground2.sol\":143:971  contract Owner {... */\n  dataSize(sub_0)\n  dup1\n  dataOffset(sub_0)\n  0x00\n  codecopy\n  0x00\n  return\nstop\n\nsub_0: assembly {\n        /* \"playground2.sol\":143:971  contract Owner {... */\n      mstore(0x40, 0x80)\n      callvalue\n      dup1\n      iszero\n      tag_1\n      jumpi\n      0x00\n      dup1\n      revert\n    tag_1:\n      pop\n      jumpi(tag_2, lt(calldatasize, 0x04))\n      shr(0xe0, calldataload(0x00))\n      dup1\n      0x5a9b0b89\n      eq\n      tag_3\n      jumpi\n      dup1\n      0x8da5cb5b\n      eq\n      tag_4\n      jumpi\n      dup1\n      0x937f6e77\n      eq\n      tag_5\n      jumpi\n    tag_2:\n      0x00\n      dup1\n      revert\n        /* \"playground2.sol\":878:969  function getInfo() external view returns (string memory) {... */\n    tag_3:\n      tag_6\n      tag_7\n      jump\t// in\n    tag_6:\n      mload(0x40)\n      tag_8\n      swap2\n      swap1\n      tag_9\n      jump\t// in\n    tag_8:\n      mload(0x40)\n      dup1\n      swap2\n      sub\n      swap1\n      return\n        /* \"playground2.sol\":195:215  address public owner */\n    tag_4:\n      tag_10\n      tag_11\n      jump\t// in\n    tag_10:\n      mload(0x40)\n      tag_12\n      swap2\n      swap1\n      tag_13\n      jump\t// in\n    tag_12:\n      mload(0x40)\n      dup1\n      swap2\n      sub\n      swap1\n      return\n        /* \"playground2.sol\":539:872  function setInfo(string memory myInfo) external {... */\n    tag_5:\n      tag_14\n      0x04\n      dup1\n      calldatasize\n      sub\n      dup2\n      add\n      swap1\n      tag_15\n      swap2\n      swap1\n      tag_16\n      jump\t// in\n    tag_15:\n      tag_17\n      jump\t// in\n    tag_14:\n      stop\n        /* \"playground2.sol\":878:969  function getInfo() external view returns (string memory) {... */\n    tag_7:\n        /* \"playground2.sol\":920:933  string memory */\n      0x60\n        /* \"playground2.sol\":952:962  storedInfo */\n      0x00\n        /* \"playground2.sol\":945:962  return storedInfo */\n      dup1\n      sload\n      tag_19\n      swap1\n      tag_20\n      jump\t// in\n    tag_19:\n      dup1\n      0x1f\n      add\n      0x20\n      dup1\n      swap2\n      div\n      mul\n      0x20\n      add\n      mload(0x40)\n      swap1\n      dup2\n      add\n      0x40\n      mstore\n      dup1\n      swap3\n      swap2\n      swap1\n      dup2\n      dup2\n      mstore\n      0x20\n      add\n      dup3\n      dup1\n      sload\n      tag_21\n      swap1\n      tag_20\n      jump\t// in\n    tag_21:\n      dup1\n      iszero\n      tag_22\n      jumpi\n      dup1\n      0x1f\n      lt\n      tag_23\n      jumpi\n      0x0100\n      dup1\n      dup4\n      sload\n      div\n      mul\n      dup4\n      mstore\n      swap2\n      0x20\n      add\n      swap2\n      jump(tag_22)\n    tag_23:\n      dup3\n      add\n      swap2\n      swap1\n      0x00\n      mstore\n      keccak256(0x00, 0x20)\n      swap1\n    tag_24:\n      dup2\n      sload\n      dup2\n      mstore\n      swap1\n      0x01\n      add\n      swap1\n      0x20\n      add\n      dup1\n      dup4\n      gt\n      tag_24\n      jumpi\n      dup3\n      swap1\n      sub\n      0x1f\n      and\n      dup3\n      add\n      swap2\n    tag_22:\n      pop\n      pop\n      pop\n      pop\n      pop\n      swap1\n      pop\n        /* \"playground2.sol\":878:969  function getInfo() external view returns (string memory) {... */\n      swap1\n      jump\t// out\n        /* \"playground2.sol\":195:215  address public owner */\n    tag_11:\n      0x01\n      0x00\n      swap1\n      sload\n      swap1\n      0x0100\n      exp\n      swap1\n      div\n      0xffffffffffffffffffffffffffffffffffffffff\n      and\n      dup2\n      jump\t// out\n        /* \"playground2.sol\":539:872  function setInfo(string memory myInfo) external {... */\n    tag_17:\n        /* \"playground2.sol\":785:790  owner */\n      0x01\n      0x00\n      swap1\n      sload\n      swap1\n      0x0100\n      exp\n      swap1\n      div\n      0xffffffffffffffffffffffffffffffffffffffff\n      and\n        /* \"playground2.sol\":771:790  msg.sender == owner */\n      0xffffffffffffffffffffffffffffffffffffffff\n      and\n        /* \"playground2.sol\":771:781  msg.sender */\n      caller\n        /* \"playground2.sol\":771:790  msg.sender == owner */\n      0xffffffffffffffffffffffffffffffffffffffff\n      and\n      eq\n        /* \"playground2.sol\":763:827  require(msg.sender == owner, \"Only owner can set this variable\") */\n      tag_26\n      jumpi\n      mload(0x40)\n      0x08c379a000000000000000000000000000000000000000000000000000000000\n      dup2\n      mstore\n      0x04\n      add\n      tag_27\n      swap1\n      tag_28\n      jump\t// in\n    tag_27:\n      mload(0x40)\n      dup1\n      swap2\n      sub\n      swap1\n      revert\n    tag_26:\n        /* \"playground2.sol\":859:865  myInfo */\n      dup1\n        /* \"playground2.sol\":846:856  storedInfo */\n      0x00\n        /* \"playground2.sol\":846:865  storedInfo = myInfo */\n      swap1\n      dup2\n      tag_29\n      swap2\n      swap1\n      tag_30\n      jump\t// in\n    tag_29:\n      pop\n        /* \"playground2.sol\":539:872  function setInfo(string memory myInfo) external {... */\n      pop\n      jump\t// out\n        /* \"#utility.yul\":7:106   */\n    tag_31:\n        /* \"#utility.yul\":59:65   */\n      0x00\n        /* \"#utility.yul\":93:98   */\n      dup2\n        /* \"#utility.yul\":87:99   */\n      mload\n        /* \"#utility.yul\":77:99   */\n      swap1\n      pop\n        /* \"#utility.yul\":7:106   */\n      swap2\n      swap1\n      pop\n      jump\t// out\n        /* \"#utility.yul\":112:281   */\n    tag_32:\n        /* \"#utility.yul\":196:207   */\n      0x00\n        /* \"#utility.yul\":230:236   */\n      dup3\n        /* \"#utility.yul\":225:228   */\n      dup3\n        /* \"#utility.yul\":218:237   */\n      mstore\n        /* \"#utility.yul\":270:274   */\n      0x20\n        /* \"#utility.yul\":265:268   */\n      dup3\n        /* \"#utility.yul\":261:275   */\n      add\n        /* \"#utility.yul\":246:275   */\n      swap1\n      pop\n        /* \"#utility.yul\":112:281   */\n      swap3\n      swap2\n      pop\n      pop\n      jump\t// out\n        /* \"#utility.yul\":287:426   */\n    tag_33:\n        /* \"#utility.yul\":376:382   */\n      dup3\n        /* \"#utility.yul\":371:374   */\n      dup2\n        /* \"#utility.yul\":366:369   */\n      dup4\n        /* \"#utility.yul\":360:383   */\n      mcopy\n        /* \"#utility.yul\":417:418   */\n      0x00\n        /* \"#utility.yul\":408:414   */\n      dup4\n        /* \"#utility.yul\":403:406   */\n      dup4\n        /* \"#utility.yul\":399:415   */\n      add\n        /* \"#utility.yul\":392:419   */\n      mstore\n        /* \"#utility.yul\":287:426   */\n      pop\n      pop\n      pop\n      jump\t// out\n        /* \"#utility.yul\":432:534   */\n    tag_34:\n        /* \"#utility.yul\":473:479   */\n      0x00\n        /* \"#utility.yul\":524:526   */\n      0x1f\n        /* \"#utility.yul\":520:527   */\n      not\n        /* \"#utility.yul\":515:517   */\n      0x1f\n        /* \"#utility.yul\":508:513   */\n      dup4\n        /* \"#utility.yul\":504:518   */\n      add\n        /* \"#utility.yul\":500:528   */\n      and\n        /* \"#utility.yul\":490:528   */\n      swap1\n      pop\n        /* \"#utility.yul\":432:534   */\n      swap2\n      swap1\n      pop\n      jump\t// out\n        /* \"#utility.yul\":540:917   */\n    tag_35:\n        /* \"#utility.yul\":628:631   */\n      0x00\n        /* \"#utility.yul\":656:695   */\n      tag_76\n        /* \"#utility.yul\":689:694   */\n      dup3\n        /* \"#utility.yul\":656:695   */\n      tag_31\n      jump\t// in\n    tag_76:\n        /* \"#utility.yul\":711:782   */\n      tag_77\n        /* \"#utility.yul\":775:781   */\n      dup2\n        /* \"#utility.yul\":770:773   */\n      dup6\n        /* \"#utility.yul\":711:782   */\n      tag_32\n      jump\t// in\n    tag_77:\n        /* \"#utility.yul\":704:782   */\n      swap4\n      pop\n        /* \"#utility.yul\":791:856   */\n      tag_78\n        /* \"#utility.yul\":849:855   */\n      dup2\n        /* \"#utility.yul\":844:847   */\n      dup6\n        /* \"#utility.yul\":837:841   */\n      0x20\n        /* \"#utility.yul\":830:835   */\n      dup7\n        /* \"#utility.yul\":826:842   */\n      add\n        /* \"#utility.yul\":791:856   */\n      tag_33\n      jump\t// in\n    tag_78:\n        /* \"#utility.yul\":881:910   */\n      tag_79\n        /* \"#utility.yul\":903:909   */\n      dup2\n        /* \"#utility.yul\":881:910   */\n      tag_34\n      jump\t// in\n    tag_79:\n        /* \"#utility.yul\":876:879   */\n      dup5\n        /* \"#utility.yul\":872:911   */\n      add\n        /* \"#utility.yul\":865:911   */\n      swap2\n      pop\n        /* \"#utility.yul\":632:917   */\n      pop\n        /* \"#utility.yul\":540:917   */\n      swap3\n      swap2\n      pop\n      pop\n      jump\t// out\n        /* \"#utility.yul\":923:1236   */\n    tag_9:\n        /* \"#utility.yul\":1036:1040   */\n      0x00\n        /* \"#utility.yul\":1074:1076   */\n      0x20\n        /* \"#utility.yul\":1063:1072   */\n      dup3\n        /* \"#utility.yul\":1059:1077   */\n      add\n        /* \"#utility.yul\":1051:1077   */\n      swap1\n      pop\n        /* \"#utility.yul\":1123:1132   */\n      dup2\n        /* \"#utility.yul\":1117:1121   */\n      dup2\n        /* \"#utility.yul\":1113:1133   */\n      sub\n        /* \"#utility.yul\":1109:1110   */\n      0x00\n        /* \"#utility.yul\":1098:1107   */\n      dup4\n        /* \"#utility.yul\":1094:1111   */\n      add\n        /* \"#utility.yul\":1087:1134   */\n      mstore\n        /* \"#utility.yul\":1151:1229   */\n      tag_81\n        /* \"#utility.yul\":1224:1228   */\n      dup2\n        /* \"#utility.yul\":1215:1221   */\n      dup5\n        /* \"#utility.yul\":1151:1229   */\n      tag_35\n      jump\t// in\n    tag_81:\n        /* \"#utility.yul\":1143:1229   */\n      swap1\n      pop\n        /* \"#utility.yul\":923:1236   */\n      swap3\n      swap2\n      pop\n      pop\n      jump\t// out\n        /* \"#utility.yul\":1242:1368   */\n    tag_36:\n        /* \"#utility.yul\":1279:1286   */\n      0x00\n        /* \"#utility.yul\":1319:1361   */\n      0xffffffffffffffffffffffffffffffffffffffff\n        /* \"#utility.yul\":1312:1317   */\n      dup3\n        /* \"#utility.yul\":1308:1362   */\n      and\n        /* \"#utility.yul\":1297:1362   */\n      swap1\n      pop\n        /* \"#utility.yul\":1242:1368   */\n      swap2\n      swap1\n      pop\n      jump\t// out\n        /* \"#utility.yul\":1374:1470   */\n    tag_37:\n        /* \"#utility.yul\":1411:1418   */\n      0x00\n        /* \"#utility.yul\":1440:1464   */\n      tag_84\n        /* \"#utility.yul\":1458:1463   */\n      dup3\n        /* \"#utility.yul\":1440:1464   */\n      tag_36\n      jump\t// in\n    tag_84:\n        /* \"#utility.yul\":1429:1464   */\n      swap1\n      pop\n        /* \"#utility.yul\":1374:1470   */\n      swap2\n      swap1\n      pop\n      jump\t// out\n        /* \"#utility.yul\":1476:1594   */\n    tag_38:\n        /* \"#utility.yul\":1563:1587   */\n      tag_86\n        /* \"#utility.yul\":1581:1586   */\n      dup2\n        /* \"#utility.yul\":1563:1587   */\n      tag_37\n      jump\t// in\n    tag_86:\n        /* \"#utility.yul\":1558:1561   */\n      dup3\n        /* \"#utility.yul\":1551:1588   */\n      mstore\n        /* \"#utility.yul\":1476:1594   */\n      pop\n      pop\n      jump\t// out\n        /* \"#utility.yul\":1600:1822   */\n    tag_13:\n        /* \"#utility.yul\":1693:1697   */\n      0x00\n        /* \"#utility.yul\":1731:1733   */\n      0x20\n        /* \"#utility.yul\":1720:1729   */\n      dup3\n        /* \"#utility.yul\":1716:1734   */\n      add\n        /* \"#utility.yul\":1708:1734   */\n      swap1\n      pop\n        /* \"#utility.yul\":1744:1815   */\n      tag_88\n        /* \"#utility.yul\":1812:1813   */\n      0x00\n        /* \"#utility.yul\":1801:1810   */\n      dup4\n        /* \"#utility.yul\":1797:1814   */\n      add\n        /* \"#utility.yul\":1788:1794   */\n      dup5\n        /* \"#utility.yul\":1744:1815   */\n      tag_38\n      jump\t// in\n    tag_88:\n        /* \"#utility.yul\":1600:1822   */\n      swap3\n      swap2\n      pop\n      pop\n      jump\t// out\n        /* \"#utility.yul\":1828:1903   */\n    tag_39:\n        /* \"#utility.yul\":1861:1867   */\n      0x00\n        /* \"#utility.yul\":1894:1896   */\n      0x40\n        /* \"#utility.yul\":1888:1897   */\n      mload\n        /* \"#utility.yul\":1878:1897   */\n      swap1\n      pop\n        /* \"#utility.yul\":1828:1903   */\n      swap1\n      jump\t// out\n        /* \"#utility.yul\":1909:2026   */\n    tag_40:\n        /* \"#utility.yul\":2018:2019   */\n      0x00\n        /* \"#utility.yul\":2015:2016   */\n      dup1\n        /* \"#utility.yul\":2008:2020   */\n      revert\n        /* \"#utility.yul\":2032:2149   */\n    tag_41:\n        /* \"#utility.yul\":2141:2142   */\n      0x00\n        /* \"#utility.yul\":2138:2139   */\n      dup1\n        /* \"#utility.yul\":2131:2143   */\n      revert\n        /* \"#utility.yul\":2155:2272   */\n    tag_42:\n        /* \"#utility.yul\":2264:2265   */\n      0x00\n        /* \"#utility.yul\":2261:2262   */\n      dup1\n        /* \"#utility.yul\":2254:2266   */\n      revert\n        /* \"#utility.yul\":2278:2395   */\n    tag_43:\n        /* \"#utility.yul\":2387:2388   */\n      0x00\n        /* \"#utility.yul\":2384:2385   */\n      dup1\n        /* \"#utility.yul\":2377:2389   */\n      revert\n        /* \"#utility.yul\":2401:2581   */\n    tag_44:\n        /* \"#utility.yul\":2449:2526   */\n      0x4e487b7100000000000000000000000000000000000000000000000000000000\n        /* \"#utility.yul\":2446:2447   */\n      0x00\n        /* \"#utility.yul\":2439:2527   */\n      mstore\n        /* \"#utility.yul\":2546:2550   */\n      0x41\n        /* \"#utility.yul\":2543:2544   */\n      0x04\n        /* \"#utility.yul\":2536:2551   */\n      mstore\n        /* \"#utility.yul\":2570:2574   */\n      0x24\n        /* \"#utility.yul\":2567:2568   */\n      0x00\n        /* \"#utility.yul\":2560:2575   */\n      revert\n        /* \"#utility.yul\":2587:2868   */\n    tag_45:\n        /* \"#utility.yul\":2670:2697   */\n      tag_96\n        /* \"#utility.yul\":2692:2696   */\n      dup3\n        /* \"#utility.yul\":2670:2697   */\n      tag_34\n      jump\t// in\n    tag_96:\n        /* \"#utility.yul\":2662:2668   */\n      dup2\n        /* \"#utility.yul\":2658:2698   */\n      add\n        /* \"#utility.yul\":2800:2806   */\n      dup2\n        /* \"#utility.yul\":2788:2798   */\n      dup2\n        /* \"#utility.yul\":2785:2807   */\n      lt\n        /* \"#utility.yul\":2764:2782   */\n      0xffffffffffffffff\n        /* \"#utility.yul\":2752:2762   */\n      dup3\n        /* \"#utility.yul\":2749:2783   */\n      gt\n        /* \"#utility.yul\":2746:2808   */\n      or\n        /* \"#utility.yul\":2743:2831   */\n      iszero\n      tag_97\n      jumpi\n        /* \"#utility.yul\":2811:2829   */\n      tag_98\n      tag_44\n      jump\t// in\n    tag_98:\n        /* \"#utility.yul\":2743:2831   */\n    tag_97:\n        /* \"#utility.yul\":2851:2861   */\n      dup1\n        /* \"#utility.yul\":2847:2849   */\n      0x40\n        /* \"#utility.yul\":2840:2862   */\n      mstore\n        /* \"#utility.yul\":2630:2868   */\n      pop\n        /* \"#utility.yul\":2587:2868   */\n      pop\n      pop\n      jump\t// out\n        /* \"#utility.yul\":2874:3003   */\n    tag_46:\n        /* \"#utility.yul\":2908:2914   */\n      0x00\n        /* \"#utility.yul\":2935:2955   */\n      tag_100\n      tag_39\n      jump\t// in\n    tag_100:\n        /* \"#utility.yul\":2925:2955   */\n      swap1\n      pop\n        /* \"#utility.yul\":2964:2997   */\n      tag_101\n        /* \"#utility.yul\":2992:2996   */\n      dup3\n        /* \"#utility.yul\":2984:2990   */\n      dup3\n        /* \"#utility.yul\":2964:2997   */\n      tag_45\n      jump\t// in\n    tag_101:\n        /* \"#utility.yul\":2874:3003   */\n      swap2\n      swap1\n      pop\n      jump\t// out\n        /* \"#utility.yul\":3009:3317   */\n    tag_47:\n        /* \"#utility.yul\":3071:3075   */\n      0x00\n        /* \"#utility.yul\":3161:3179   */\n      0xffffffffffffffff\n        /* \"#utility.yul\":3153:3159   */\n      dup3\n        /* \"#utility.yul\":3150:3180   */\n      gt\n        /* \"#utility.yul\":3147:3203   */\n      iszero\n      tag_103\n      jumpi\n        /* \"#utility.yul\":3183:3201   */\n      tag_104\n      tag_44\n      jump\t// in\n    tag_104:\n        /* \"#utility.yul\":3147:3203   */\n    tag_103:\n        /* \"#utility.yul\":3221:3250   */\n      tag_105\n        /* \"#utility.yul\":3243:3249   */\n      dup3\n        /* \"#utility.yul\":3221:3250   */\n      tag_34\n      jump\t// in\n    tag_105:\n        /* \"#utility.yul\":3213:3250   */\n      swap1\n      pop\n        /* \"#utility.yul\":3305:3309   */\n      0x20\n        /* \"#utility.yul\":3299:3303   */\n      dup2\n        /* \"#utility.yul\":3295:3310   */\n      add\n        /* \"#utility.yul\":3287:3310   */\n      swap1\n      pop\n        /* \"#utility.yul\":3009:3317   */\n      swap2\n      swap1\n      pop\n      jump\t// out\n        /* \"#utility.yul\":3323:3471   */\n    tag_48:\n        /* \"#utility.yul\":3421:3427   */\n      dup3\n        /* \"#utility.yul\":3416:3419   */\n      dup2\n        /* \"#utility.yul\":3411:3414   */\n      dup4\n        /* \"#utility.yul\":3398:3428   */\n      calldatacopy\n        /* \"#utility.yul\":3462:3463   */\n      0x00\n        /* \"#utility.yul\":3453:3459   */\n      dup4\n        /* \"#utility.yul\":3448:3451   */\n      dup4\n        /* \"#utility.yul\":3444:3460   */\n      add\n        /* \"#utility.yul\":3437:3464   */\n      mstore\n        /* \"#utility.yul\":3323:3471   */\n      pop\n      pop\n      pop\n      jump\t// out\n        /* \"#utility.yul\":3477:3902   */\n    tag_49:\n        /* \"#utility.yul\":3555:3560   */\n      0x00\n        /* \"#utility.yul\":3580:3646   */\n      tag_108\n        /* \"#utility.yul\":3596:3645   */\n      tag_109\n        /* \"#utility.yul\":3638:3644   */\n      dup5\n        /* \"#utility.yul\":3596:3645   */\n      tag_47\n      jump\t// in\n    tag_109:\n        /* \"#utility.yul\":3580:3646   */\n      tag_46\n      jump\t// in\n    tag_108:\n        /* \"#utility.yul\":3571:3646   */\n      swap1\n      pop\n        /* \"#utility.yul\":3669:3675   */\n      dup3\n        /* \"#utility.yul\":3662:3667   */\n      dup2\n        /* \"#utility.yul\":3655:3676   */\n      mstore\n        /* \"#utility.yul\":3707:3711   */\n      0x20\n        /* \"#utility.yul\":3700:3705   */\n      dup2\n        /* \"#utility.yul\":3696:3712   */\n      add\n        /* \"#utility.yul\":3745:3748   */\n      dup5\n        /* \"#utility.yul\":3736:3742   */\n      dup5\n        /* \"#utility.yul\":3731:3734   */\n      dup5\n        /* \"#utility.yul\":3727:3743   */\n      add\n        /* \"#utility.yul\":3724:3749   */\n      gt\n        /* \"#utility.yul\":3721:3833   */\n      iszero\n      tag_110\n      jumpi\n        /* \"#utility.yul\":3752:3831   */\n      tag_111\n      tag_43\n      jump\t// in\n    tag_111:\n        /* \"#utility.yul\":3721:3833   */\n    tag_110:\n        /* \"#utility.yul\":3842:3896   */\n      tag_112\n        /* \"#utility.yul\":3889:3895   */\n      dup5\n        /* \"#utility.yul\":3884:3887   */\n      dup3\n        /* \"#utility.yul\":3879:3882   */\n      dup6\n        /* \"#utility.yul\":3842:3896   */\n      tag_48\n      jump\t// in\n    tag_112:\n        /* \"#utility.yul\":3561:3902   */\n      pop\n        /* \"#utility.yul\":3477:3902   */\n      swap4\n      swap3\n      pop\n      pop\n      pop\n      jump\t// out\n        /* \"#utility.yul\":3922:4262   */\n    tag_50:\n        /* \"#utility.yul\":3978:3983   */\n      0x00\n        /* \"#utility.yul\":4027:4030   */\n      dup3\n        /* \"#utility.yul\":4020:4024   */\n      0x1f\n        /* \"#utility.yul\":4012:4018   */\n      dup4\n        /* \"#utility.yul\":4008:4025   */\n      add\n        /* \"#utility.yul\":4004:4031   */\n      slt\n        /* \"#utility.yul\":3994:4116   */\n      tag_114\n      jumpi\n        /* \"#utility.yul\":4035:4114   */\n      tag_115\n      tag_42\n      jump\t// in\n    tag_115:\n        /* \"#utility.yul\":3994:4116   */\n    tag_114:\n        /* \"#utility.yul\":4152:4158   */\n      dup2\n        /* \"#utility.yul\":4139:4159   */\n      calldataload\n        /* \"#utility.yul\":4177:4256   */\n      tag_116\n        /* \"#utility.yul\":4252:4255   */\n      dup5\n        /* \"#utility.yul\":4244:4250   */\n      dup3\n        /* \"#utility.yul\":4237:4241   */\n      0x20\n        /* \"#utility.yul\":4229:4235   */\n      dup7\n        /* \"#utility.yul\":4225:4242   */\n      add\n        /* \"#utility.yul\":4177:4256   */\n      tag_49\n      jump\t// in\n    tag_116:\n        /* \"#utility.yul\":4168:4256   */\n      swap2\n      pop\n        /* \"#utility.yul\":3984:4262   */\n      pop\n        /* \"#utility.yul\":3922:4262   */\n      swap3\n      swap2\n      pop\n      pop\n      jump\t// out\n        /* \"#utility.yul\":4268:4777   */\n    tag_16:\n        /* \"#utility.yul\":4337:4343   */\n      0x00\n        /* \"#utility.yul\":4386:4388   */\n      0x20\n        /* \"#utility.yul\":4374:4383   */\n      dup3\n        /* \"#utility.yul\":4365:4372   */\n      dup5\n        /* \"#utility.yul\":4361:4384   */\n      sub\n        /* \"#utility.yul\":4357:4389   */\n      slt\n        /* \"#utility.yul\":4354:4473   */\n      iszero\n      tag_118\n      jumpi\n        /* \"#utility.yul\":4392:4471   */\n      tag_119\n      tag_40\n      jump\t// in\n    tag_119:\n        /* \"#utility.yul\":4354:4473   */\n    tag_118:\n        /* \"#utility.yul\":4540:4541   */\n      0x00\n        /* \"#utility.yul\":4529:4538   */\n      dup3\n        /* \"#utility.yul\":4525:4542   */\n      add\n        /* \"#utility.yul\":4512:4543   */\n      calldataload\n        /* \"#utility.yul\":4570:4588   */\n      0xffffffffffffffff\n        /* \"#utility.yul\":4562:4568   */\n      dup2\n        /* \"#utility.yul\":4559:4589   */\n      gt\n        /* \"#utility.yul\":4556:4673   */\n      iszero\n      tag_120\n      jumpi\n        /* \"#utility.yul\":4592:4671   */\n      tag_121\n      tag_41\n      jump\t// in\n    tag_121:\n        /* \"#utility.yul\":4556:4673   */\n    tag_120:\n        /* \"#utility.yul\":4697:4760   */\n      tag_122\n        /* \"#utility.yul\":4752:4759   */\n      dup5\n        /* \"#utility.yul\":4743:4749   */\n      dup3\n        /* \"#utility.yul\":4732:4741   */\n      dup6\n        /* \"#utility.yul\":4728:4750   */\n      add\n        /* \"#utility.yul\":4697:4760   */\n      tag_50\n      jump\t// in\n    tag_122:\n        /* \"#utility.yul\":4687:4760   */\n      swap2\n      pop\n        /* \"#utility.yul\":4483:4770   */\n      pop\n        /* \"#utility.yul\":4268:4777   */\n      swap3\n      swap2\n      pop\n      pop\n      jump\t// out\n        /* \"#utility.yul\":4783:4963   */\n    tag_51:\n        /* \"#utility.yul\":4831:4908   */\n      0x4e487b7100000000000000000000000000000000000000000000000000000000\n        /* \"#utility.yul\":4828:4829   */\n      0x00\n        /* \"#utility.yul\":4821:4909   */\n      mstore\n        /* \"#utility.yul\":4928:4932   */\n      0x22\n        /* \"#utility.yul\":4925:4926   */\n      0x04\n        /* \"#utility.yul\":4918:4933   */\n      mstore\n        /* \"#utility.yul\":4952:4956   */\n      0x24\n        /* \"#utility.yul\":4949:4950   */\n      0x00\n        /* \"#utility.yul\":4942:4957   */\n      revert\n        /* \"#utility.yul\":4969:5289   */\n    tag_20:\n        /* \"#utility.yul\":5013:5019   */\n      0x00\n        /* \"#utility.yul\":5050:5051   */\n      0x02\n        /* \"#utility.yul\":5044:5048   */\n      dup3\n        /* \"#utility.yul\":5040:5052   */\n      div\n        /* \"#utility.yul\":5030:5052   */\n      swap1\n      pop\n        /* \"#utility.yul\":5097:5098   */\n      0x01\n        /* \"#utility.yul\":5091:5095   */\n      dup3\n        /* \"#utility.yul\":5087:5099   */\n      and\n        /* \"#utility.yul\":5118:5136   */\n      dup1\n        /* \"#utility.yul\":5108:5189   */\n      tag_125\n      jumpi\n        /* \"#utility.yul\":5174:5178   */\n      0x7f\n        /* \"#utility.yul\":5166:5172   */\n      dup3\n        /* \"#utility.yul\":5162:5179   */\n      and\n        /* \"#utility.yul\":5152:5179   */\n      swap2\n      pop\n        /* \"#utility.yul\":5108:5189   */\n    tag_125:\n        /* \"#utility.yul\":5236:5238   */\n      0x20\n        /* \"#utility.yul\":5228:5234   */\n      dup3\n        /* \"#utility.yul\":5225:5239   */\n      lt\n        /* \"#utility.yul\":5205:5223   */\n      dup2\n        /* \"#utility.yul\":5202:5240   */\n      sub\n        /* \"#utility.yul\":5199:5283   */\n      tag_126\n      jumpi\n        /* \"#utility.yul\":5255:5273   */\n      tag_127\n      tag_51\n      jump\t// in\n    tag_127:\n        /* \"#utility.yul\":5199:5283   */\n    tag_126:\n        /* \"#utility.yul\":5020:5289   */\n      pop\n        /* \"#utility.yul\":4969:5289   */\n      swap2\n      swap1\n      pop\n      jump\t// out\n        /* \"#utility.yul\":5295:5477   */\n    tag_52:\n        /* \"#utility.yul\":5435:5469   */\n      0x4f6e6c79206f776e65722063616e207365742074686973207661726961626c65\n        /* \"#utility.yul\":5431:5432   */\n      0x00\n        /* \"#utility.yul\":5423:5429   */\n      dup3\n        /* \"#utility.yul\":5419:5433   */\n      add\n        /* \"#utility.yul\":5412:5470   */\n      mstore\n        /* \"#utility.yul\":5295:5477   */\n      pop\n      jump\t// out\n        /* \"#utility.yul\":5483:5849   */\n    tag_53:\n        /* \"#utility.yul\":5625:5628   */\n      0x00\n        /* \"#utility.yul\":5646:5713   */\n      tag_130\n        /* \"#utility.yul\":5710:5712   */\n      0x20\n        /* \"#utility.yul\":5705:5708   */\n      dup4\n        /* \"#utility.yul\":5646:5713   */\n      tag_32\n      jump\t// in\n    tag_130:\n        /* \"#utility.yul\":5639:5713   */\n      swap2\n      pop\n        /* \"#utility.yul\":5722:5815   */\n      tag_131\n        /* \"#utility.yul\":5811:5814   */\n      dup3\n        /* \"#utility.yul\":5722:5815   */\n      tag_52\n      jump\t// in\n    tag_131:\n        /* \"#utility.yul\":5840:5842   */\n      0x20\n        /* \"#utility.yul\":5835:5838   */\n      dup3\n        /* \"#utility.yul\":5831:5843   */\n      add\n        /* \"#utility.yul\":5824:5843   */\n      swap1\n      pop\n        /* \"#utility.yul\":5483:5849   */\n      swap2\n      swap1\n      pop\n      jump\t// out\n        /* \"#utility.yul\":5855:6274   */\n    tag_28:\n        /* \"#utility.yul\":6021:6025   */\n      0x00\n        /* \"#utility.yul\":6059:6061   */\n      0x20\n        /* \"#utility.yul\":6048:6057   */\n      dup3\n        /* \"#utility.yul\":6044:6062   */\n      add\n        /* \"#utility.yul\":6036:6062   */\n      swap1\n      pop\n        /* \"#utility.yul\":6108:6117   */\n      dup2\n        /* \"#utility.yul\":6102:6106   */\n      dup2\n        /* \"#utility.yul\":6098:6118   */\n      sub\n        /* \"#utility.yul\":6094:6095   */\n      0x00\n        /* \"#utility.yul\":6083:6092   */\n      dup4\n        /* \"#utility.yul\":6079:6096   */\n      add\n        /* \"#utility.yul\":6072:6119   */\n      mstore\n        /* \"#utility.yul\":6136:6267   */\n      tag_133\n        /* \"#utility.yul\":6262:6266   */\n      dup2\n        /* \"#utility.yul\":6136:6267   */\n      tag_53\n      jump\t// in\n    tag_133:\n        /* \"#utility.yul\":6128:6267   */\n      swap1\n      pop\n        /* \"#utility.yul\":5855:6274   */\n      swap2\n      swap1\n      pop\n      jump\t// out\n        /* \"#utility.yul\":6280:6421   */\n    tag_54:\n        /* \"#utility.yul\":6329:6333   */\n      0x00\n        /* \"#utility.yul\":6352:6355   */\n      dup2\n        /* \"#utility.yul\":6344:6355   */\n      swap1\n      pop\n        /* \"#utility.yul\":6375:6378   */\n      dup2\n        /* \"#utility.yul\":6372:6373   */\n      0x00\n        /* \"#utility.yul\":6365:6379   */\n      mstore\n        /* \"#utility.yul\":6409:6413   */\n      0x20\n        /* \"#utility.yul\":6406:6407   */\n      0x00\n        /* \"#utility.yul\":6396:6414   */\n      keccak256\n        /* \"#utility.yul\":6388:6414   */\n      swap1\n      pop\n        /* \"#utility.yul\":6280:6421   */\n      swap2\n      swap1\n      pop\n      jump\t// out\n        /* \"#utility.yul\":6427:6520   */\n    tag_55:\n        /* \"#utility.yul\":6464:6470   */\n      0x00\n        /* \"#utility.yul\":6511:6513   */\n      0x20\n        /* \"#utility.yul\":6506:6508   */\n      0x1f\n        /* \"#utility.yul\":6499:6504   */\n      dup4\n        /* \"#utility.yul\":6495:6509   */\n      add\n        /* \"#utility.yul\":6491:6514   */\n      div\n        /* \"#utility.yul\":6481:6514   */\n      swap1\n      pop\n        /* \"#utility.yul\":6427:6520   */\n      swap2\n      swap1\n      pop\n      jump\t// out\n        /* \"#utility.yul\":6526:6633   */\n    tag_56:\n        /* \"#utility.yul\":6570:6578   */\n      0x00\n        /* \"#utility.yul\":6620:6625   */\n      dup3\n        /* \"#utility.yul\":6614:6618   */\n      dup3\n        /* \"#utility.yul\":6610:6626   */\n      shl\n        /* \"#utility.yul\":6589:6626   */\n      swap1\n      pop\n        /* \"#utility.yul\":6526:6633   */\n      swap3\n      swap2\n      pop\n      pop\n      jump\t// out\n        /* \"#utility.yul\":6639:7032   */\n    tag_57:\n        /* \"#utility.yul\":6708:6714   */\n      0x00\n        /* \"#utility.yul\":6758:6759   */\n      0x08\n        /* \"#utility.yul\":6746:6756   */\n      dup4\n        /* \"#utility.yul\":6742:6760   */\n      mul\n        /* \"#utility.yul\":6781:6878   */\n      tag_138\n        /* \"#utility.yul\":6811:6877   */\n      0xffffffffffffffffffffffffffffffffffffffffffffffffffffffffffffffff\n        /* \"#utility.yul\":6800:6809   */\n      dup3\n        /* \"#utility.yul\":6781:6878   */\n      tag_56\n      jump\t// in\n    tag_138:\n        /* \"#utility.yul\":6899:6938   */\n      tag_139\n        /* \"#utility.yul\":6929:6937   */\n      dup7\n        /* \"#utility.yul\":6918:6927   */\n      dup4\n        /* \"#utility.yul\":6899:6938   */\n      tag_56\n      jump\t// in\n    tag_139:\n        /* \"#utility.yul\":6887:6938   */\n      swap6\n      pop\n        /* \"#utility.yul\":6971:6975   */\n      dup1\n        /* \"#utility.yul\":6967:6976   */\n      not\n        /* \"#utility.yul\":6960:6965   */\n      dup5\n        /* \"#utility.yul\":6956:6977   */\n      and\n        /* \"#utility.yul\":6947:6977   */\n      swap4\n      pop\n        /* \"#utility.yul\":7020:7024   */\n      dup1\n        /* \"#utility.yul\":7010:7018   */\n      dup7\n        /* \"#utility.yul\":7006:7025   */\n      and\n        /* \"#utility.yul\":6999:7004   */\n      dup5\n        /* \"#utility.yul\":6996:7026   */\n      or\n        /* \"#utility.yul\":6986:7026   */\n      swap3\n      pop\n        /* \"#utility.yul\":6715:7032   */\n      pop\n      pop\n        /* \"#utility.yul\":6639:7032   */\n      swap4\n      swap3\n      pop\n      pop\n      pop\n      jump\t// out\n        /* \"#utility.yul\":7038:7115   */\n    tag_58:\n        /* \"#utility.yul\":7075:7082   */\n      0x00\n        /* \"#utility.yul\":7104:7109   */\n      dup2\n        /* \"#utility.yul\":7093:7109   */\n      swap1\n      pop\n        /* \"#utility.yul\":7038:7115   */\n      swap2\n      swap1\n      pop\n      jump\t// out\n        /* \"#utility.yul\":7121:7181   */\n    tag_59:\n        /* \"#utility.yul\":7149:7152   */\n      0x00\n        /* \"#utility.yul\":7170:7175   */\n      dup2\n        /* \"#utility.yul\":7163:7175   */\n      swap1\n      pop\n        /* \"#utility.yul\":7121:7181   */\n      swap2\n      swap1\n      pop\n      jump\t// out\n        /* \"#utility.yul\":7187:7329   */\n    tag_60:\n        /* \"#utility.yul\":7237:7246   */\n      0x00\n        /* \"#utility.yul\":7270:7323   */\n      tag_143\n        /* \"#utility.yul\":7288:7322   */\n      tag_144\n        /* \"#utility.yul\":7297:7321   */\n      tag_145\n        /* \"#utility.yul\":7315:7320   */\n      dup5\n        /* \"#utility.yul\":7297:7321   */\n      tag_58\n      jump\t// in\n    tag_145:\n        /* \"#utility.yul\":7288:7322   */\n      tag_59\n      jump\t// in\n    tag_144:\n        /* \"#utility.yul\":7270:7323   */\n      tag_58\n      jump\t// in\n    tag_143:\n        /* \"#utility.yul\":7257:7323   */\n      swap1\n      pop\n        /* \"#utility.yul\":7187:7329   */\n      swap2\n      swap1\n      pop\n      jump\t// out\n        /* \"#utility.yul\":7335:7410   */\n    tag_61:\n        /* \"#utility.yul\":7378:7381   */\n      0x00\n        /* \"#utility.yul\":7399:7404   */\n      dup2\n        /* \"#utility.yul\":7392:7404   */\n      swap1\n      pop\n        /* \"#utility.yul\":7335:7410   */\n      swap2\n      swap1\n      pop\n      jump\t// out\n        /* \"#utility.yul\":7416:7685   */\n    tag_62:\n        /* \"#utility.yul\":7526:7565   */\n      tag_148\n        /* \"#utility.yul\":7557:7564   */\n      dup4\n        /* \"#utility.yul\":7526:7565   */\n      tag_60\n      jump\t// in\n    tag_148:\n        /* \"#utility.yul\":7587:7678   */\n      tag_149\n        /* \"#utility.yul\":7636:7677   */\n      tag_150\n        /* \"#utility.yul\":7660:7676   */\n      dup3\n        /* \"#utility.yul\":7636:7677   */\n      tag_61\n      jump\t// in\n    tag_150:\n        /* \"#utility.yul\":7628:7634   */\n      dup5\n        /* \"#utility.yul\":7621:7625   */\n      dup5\n        /* \"#utility.yul\":7615:7626   */\n      sload\n        /* \"#utility.yul\":7587:7678   */\n      tag_57\n      jump\t// in\n    tag_149:\n        /* \"#utility.yul\":7581:7585   */\n      dup3\n        /* \"#utility.yul\":7574:7679   */\n      sstore\n        /* \"#utility.yul\":7492:7685   */\n      pop\n        /* \"#utility.yul\":7416:7685   */\n      pop\n      pop\n      pop\n      jump\t// out\n        /* \"#utility.yul\":7691:7764   */\n    tag_63:\n        /* \"#utility.yul\":7736:7739   */\n      0x00\n        /* \"#utility.yul\":7691:7764   */\n      swap1\n      jump\t// out\n        /* \"#utility.yul\":7770:7959   */\n    tag_64:\n        /* \"#utility.yul\":7847:7879   */\n      tag_153\n      tag_63\n      jump\t// in\n    tag_153:\n        /* \"#utility.yul\":7888:7953   */\n      tag_154\n        /* \"#utility.yul\":7946:7952   */\n      dup2\n        /* \"#utility.yul\":7938:7944   */\n      dup5\n        /* \"#utility.yul\":7932:7936   */\n      dup5\n        /* \"#utility.yul\":7888:7953   */\n      tag_62\n      jump\t// in\n    tag_154:\n        /* \"#utility.yul\":7823:7959   */\n      pop\n        /* \"#utility.yul\":7770:7959   */\n      pop\n      pop\n      jump\t// out\n        /* \"#utility.yul\":7965:8151   */\n    tag_65:\n        /* \"#utility.yul\":8025:8145   */\n    tag_156:\n        /* \"#utility.yul\":8042:8045   */\n      dup2\n        /* \"#utility.yul\":8035:8040   */\n      dup2\n        /* \"#utility.yul\":8032:8046   */\n      lt\n        /* \"#utility.yul\":8025:8145   */\n      iszero\n      tag_158\n      jumpi\n        /* \"#utility.yul\":8096:8135   */\n      tag_159\n        /* \"#utility.yul\":8133:8134   */\n      0x00\n        /* \"#utility.yul\":8126:8131   */\n      dup3\n        /* \"#utility.yul\":8096:8135   */\n      tag_64\n      jump\t// in\n    tag_159:\n        /* \"#utility.yul\":8069:8070   */\n      0x01\n        /* \"#utility.yul\":8062:8067   */\n      dup2\n        /* \"#utility.yul\":8058:8071   */\n      add\n        /* \"#utility.yul\":8049:8071   */\n      swap1\n      pop\n        /* \"#utility.yul\":8025:8145   */\n      jump(tag_156)\n    tag_158:\n        /* \"#utility.yul\":7965:8151   */\n      pop\n      pop\n      jump\t// out\n        /* \"#utility.yul\":8157:8700   */\n    tag_66:\n        /* \"#utility.yul\":8258:8260   */\n      0x1f\n        /* \"#utility.yul\":8253:8256   */\n      dup3\n        /* \"#utility.yul\":8250:8261   */\n      gt\n        /* \"#utility.yul\":8247:8693   */\n      iszero\n      tag_161\n      jumpi\n        /* \"#utility.yul\":8292:8330   */\n      tag_162\n        /* \"#utility.yul\":8324:8329   */\n      dup2\n        /* \"#utility.yul\":8292:8330   */\n      tag_54\n      jump\t// in\n    tag_162:\n        /* \"#utility.yul\":8376:8405   */\n      tag_163\n        /* \"#utility.yul\":8394:8404   */\n      dup5\n        /* \"#utility.yul\":8376:8405   */\n      tag_55\n      jump\t// in\n    tag_163:\n        /* \"#utility.yul\":8366:8374   */\n      dup2\n        /* \"#utility.yul\":8362:8406   */\n      add\n        /* \"#utility.yul\":8559:8561   */\n      0x20\n        /* \"#utility.yul\":8547:8557   */\n      dup6\n        /* \"#utility.yul\":8544:8562   */\n      lt\n        /* \"#utility.yul\":8541:8590   */\n      iszero\n      tag_164\n      jumpi\n        /* \"#utility.yul\":8580:8588   */\n      dup2\n        /* \"#utility.yul\":8565:8588   */\n      swap1\n      pop\n        /* \"#utility.yul\":8541:8590   */\n    tag_164:\n        /* \"#utility.yul\":8603:8683   */\n      tag_165\n        /* \"#utility.yul\":8659:8681   */\n      tag_166\n        /* \"#utility.yul\":8677:8680   */\n      dup6\n        /* \"#utility.yul\":8659:8681   */\n      tag_55\n      jump\t// in\n    tag_166:\n        /* \"#utility.yul\":8649:8657   */\n      dup4\n        /* \"#utility.yul\":8645:8682   */\n      add\n        /* \"#utility.yul\":8632:8643   */\n      dup3\n        /* \"#utility.yul\":8603:8683   */\n      tag_65\n      jump\t// in\n    tag_165:\n        /* \"#utility.yul\":8262:8693   */\n      pop\n      pop\n        /* \"#utility.yul\":8247:8693   */\n    tag_161:\n        /* \"#utility.yul\":8157:8700   */\n      pop\n      pop\n      pop\n      jump\t// out\n        /* \"#utility.yul\":8706:8823   */\n    tag_67:\n        /* \"#utility.yul\":8760:8768   */\n      0x00\n        /* \"#utility.yul\":8810:8815   */\n      dup3\n        /* \"#utility.yul\":8804:8808   */\n      dup3\n        /* \"#utility.yul\":8800:8816   */\n      shr\n        /* \"#utility.yul\":8779:8816   */\n      swap1\n      pop\n        /* \"#utility.yul\":8706:8823   */\n      swap3\n      swap2\n      pop\n      pop\n      jump\t// out\n        /* \"#utility.yul\":8829:8998   */\n    tag_68:\n        /* \"#utility.yul\":8873:8879   */\n      0x00\n        /* \"#utility.yul\":8906:8957   */\n      tag_169\n        /* \"#utility.yul\":8954:8955   */\n      0x00\n        /* \"#utility.yul\":8950:8956   */\n      not\n        /* \"#utility.yul\":8942:8947   */\n      dup5\n        /* \"#utility.yul\":8939:8940   */\n      0x08\n        /* \"#utility.yul\":8935:8948   */\n      mul\n        /* \"#utility.yul\":8906:8957   */\n      tag_67\n      jump\t// in\n    tag_169:\n        /* \"#utility.yul\":8902:8958   */\n      not\n        /* \"#utility.yul\":8987:8991   */\n      dup1\n        /* \"#utility.yul\":8981:8985   */\n      dup4\n        /* \"#utility.yul\":8977:8992   */\n      and\n        /* \"#utility.yul\":8967:8992   */\n      swap2\n      pop\n        /* \"#utility.yul\":8880:8998   */\n      pop\n        /* \"#utility.yul\":8829:8998   */\n      swap3\n      swap2\n      pop\n      pop\n      jump\t// out\n        /* \"#utility.yul\":9003:9298   */\n    tag_69:\n        /* \"#utility.yul\":9079:9083   */\n      0x00\n        /* \"#utility.yul\":9225:9254   */\n      tag_171\n        /* \"#utility.yul\":9250:9253   */\n      dup4\n        /* \"#utility.yul\":9244:9248   */\n      dup4\n        /* \"#utility.yul\":9225:9254   */\n      tag_68\n      jump\t// in\n    tag_171:\n        /* \"#utility.yul\":9217:9254   */\n      swap2\n      pop\n        /* \"#utility.yul\":9287:9290   */\n      dup3\n        /* \"#utility.yul\":9284:9285   */\n      0x02\n        /* \"#utility.yul\":9280:9291   */\n      mul\n        /* \"#utility.yul\":9274:9278   */\n      dup3\n        /* \"#utility.yul\":9271:9292   */\n      or\n        /* \"#utility.yul\":9263:9292   */\n      swap1\n      pop\n        /* \"#utility.yul\":9003:9298   */\n      swap3\n      swap2\n      pop\n      pop\n      jump\t// out\n        /* \"#utility.yul\":9303:10698   */\n    tag_30:\n        /* \"#utility.yul\":9420:9457   */\n      tag_173\n        /* \"#utility.yul\":9453:9456   */\n      dup3\n        /* \"#utility.yul\":9420:9457   */\n      tag_31\n      jump\t// in\n    tag_173:\n        /* \"#utility.yul\":9522:9540   */\n      0xffffffffffffffff\n        /* \"#utility.yul\":9514:9520   */\n      dup2\n        /* \"#utility.yul\":9511:9541   */\n      gt\n        /* \"#utility.yul\":9508:9564   */\n      iszero\n      tag_174\n      jumpi\n        /* \"#utility.yul\":9544:9562   */\n      tag_175\n      tag_44\n      jump\t// in\n    tag_175:\n        /* \"#utility.yul\":9508:9564   */\n    tag_174:\n        /* \"#utility.yul\":9588:9626   */\n      tag_176\n        /* \"#utility.yul\":9620:9624   */\n      dup3\n        /* \"#utility.yul\":9614:9625   */\n      sload\n        /* \"#utility.yul\":9588:9626   */\n      tag_20\n      jump\t// in\n    tag_176:\n        /* \"#utility.yul\":9673:9740   */\n      tag_177\n        /* \"#utility.yul\":9733:9739   */\n      dup3\n        /* \"#utility.yul\":9725:9731   */\n      dup3\n        /* \"#utility.yul\":9719:9723   */\n      dup6\n        /* \"#utility.yul\":9673:9740   */\n      tag_66\n      jump\t// in\n    tag_177:\n        /* \"#utility.yul\":9767:9768   */\n      0x00\n        /* \"#utility.yul\":9791:9795   */\n      0x20\n        /* \"#utility.yul\":9778:9795   */\n      swap1\n      pop\n        /* \"#utility.yul\":9823:9825   */\n      0x1f\n        /* \"#utility.yul\":9815:9821   */\n      dup4\n        /* \"#utility.yul\":9812:9826   */\n      gt\n        /* \"#utility.yul\":9840:9841   */\n      0x01\n        /* \"#utility.yul\":9835:10453   */\n      dup2\n      eq\n      tag_179\n      jumpi\n        /* \"#utility.yul\":10497:10498   */\n      0x00\n        /* \"#utility.yul\":10514:10520   */\n      dup5\n        /* \"#utility.yul\":10511:10588   */\n      iszero\n      tag_180\n      jumpi\n        /* \"#utility.yul\":10563:10572   */\n      dup3\n        /* \"#utility.yul\":10558:10561   */\n      dup8\n        /* \"#utility.yul\":10554:10573   */\n      add\n        /* \"#utility.yul\":10548:10574   */\n      mload\n        /* \"#utility.yul\":10539:10574   */\n      swap1\n      pop\n        /* \"#utility.yul\":10511:10588   */\n    tag_180:\n        /* \"#utility.yul\":10614:10681   */\n      tag_181\n        /* \"#utility.yul\":10674:10680   */\n      dup6\n        /* \"#utility.yul\":10667:10672   */\n      dup3\n        /* \"#utility.yul\":10614:10681   */\n      tag_69\n      jump\t// in\n    tag_181:\n        /* \"#utility.yul\":10608:10612   */\n      dup7\n        /* \"#utility.yul\":10601:10682   */\n      sstore\n        /* \"#utility.yul\":10470:10692   */\n      pop\n        /* \"#utility.yul\":9805:10692   */\n      jump(tag_178)\n        /* \"#utility.yul\":9835:10453   */\n    tag_179:\n        /* \"#utility.yul\":9887:9891   */\n      0x1f\n        /* \"#utility.yul\":9883:9892   */\n      not\n        /* \"#utility.yul\":9875:9881   */\n      dup5\n        /* \"#utility.yul\":9871:9893   */\n      and\n        /* \"#utility.yul\":9921:9958   */\n      tag_182\n        /* \"#utility.yul\":9953:9957   */\n      dup7\n        /* \"#utility.yul\":9921:9958   */\n      tag_54\n      jump\t// in\n    tag_182:\n        /* \"#utility.yul\":9980:9981   */\n      0x00\n        /* \"#utility.yul\":9994:10202   */\n    tag_183:\n        /* \"#utility.yul\":10008:10015   */\n      dup3\n        /* \"#utility.yul\":10005:10006   */\n      dup2\n        /* \"#utility.yul\":10002:10016   */\n      lt\n        /* \"#utility.yul\":9994:10202   */\n      iszero\n      tag_185\n      jumpi\n        /* \"#utility.yul\":10087:10096   */\n      dup5\n        /* \"#utility.yul\":10082:10085   */\n      dup10\n        /* \"#utility.yul\":10078:10097   */\n      add\n        /* \"#utility.yul\":10072:10098   */\n      mload\n        /* \"#utility.yul\":10064:10070   */\n      dup3\n        /* \"#utility.yul\":10057:10099   */\n      sstore\n        /* \"#utility.yul\":10138:10139   */\n      0x01\n        /* \"#utility.yul\":10130:10136   */\n      dup3\n        /* \"#utility.yul\":10126:10140   */\n      add\n        /* \"#utility.yul\":10116:10140   */\n      swap2\n      pop\n        /* \"#utility.yul\":10185:10187   */\n      0x20\n        /* \"#utility.yul\":10174:10183   */\n      dup6\n        /* \"#utility.yul\":10170:10188   */\n      add\n        /* \"#utility.yul\":10157:10188   */\n      swap5\n      pop\n        /* \"#utility.yul\":10031:10035   */\n      0x20\n        /* \"#utility.yul\":10028:10029   */\n      dup2\n        /* \"#utility.yul\":10024:10036   */\n      add\n        /* \"#utility.yul\":10019:10036   */\n      swap1\n      pop\n        /* \"#utility.yul\":9994:10202   */\n      jump(tag_183)\n    tag_185:\n        /* \"#utility.yul\":10230:10236   */\n      dup7\n        /* \"#utility.yul\":10221:10228   */\n      dup4\n        /* \"#utility.yul\":10218:10237   */\n      lt\n        /* \"#utility.yul\":10215:10394   */\n      iszero\n      tag_186\n      jumpi\n        /* \"#utility.yul\":10288:10297   */\n      dup5\n        /* \"#utility.yul\":10283:10286   */\n      dup10\n        /* \"#utility.yul\":10279:10298   */\n      add\n        /* \"#utility.yul\":10273:10299   */\n      mload\n        /* \"#utility.yul\":10331:10379   */\n      tag_187\n        /* \"#utility.yul\":10373:10377   */\n      0x1f\n        /* \"#utility.yul\":10365:10371   */\n      dup10\n        /* \"#utility.yul\":10361:10378   */\n      and\n        /* \"#utility.yul\":10350:10359   */\n      dup3\n        /* \"#utility.yul\":10331:10379   */\n      tag_68\n      jump\t// in\n    tag_187:\n        /* \"#utility.yul\":10323:10329   */\n      dup4\n        /* \"#utility.yul\":10316:10380   */\n      sstore\n        /* \"#utility.yul\":10238:10394   */\n      pop\n        /* \"#utility.yul\":10215:10394   */\n    tag_186:\n        /* \"#utility.yul\":10440:10441   */\n      0x01\n        /* \"#utility.yul\":10436:10437   */\n      0x02\n        /* \"#utility.yul\":10428:10434   */\n      dup9\n        /* \"#utility.yul\":10424:10438   */\n      mul\n        /* \"#utility.yul\":10420:10442   */\n      add\n        /* \"#utility.yul\":10414:10418   */\n      dup9\n        /* \"#utility.yul\":10407:10443   */\n      sstore\n        /* \"#utility.yul\":9842:10453   */\n      pop\n      pop\n      pop\n        /* \"#utility.yul\":9805:10692   */\n    tag_178:\n      pop\n        /* \"#utility.yul\":9395:10698   */\n      pop\n      pop\n      pop\n        /* \"#utility.yul\":9303:10698   */\n      pop\n      pop\n      jump\t// out\n\n    auxdata: 0xa2646970667358221220643b8009c36161e54163fa2fca28aa8bba5803b1de86565ba722575739a7278f64736f6c63430008190033\n}\n",
				"bytecode": {
					"linkReferences": {},
					"object": "6080604052348015600e575f80fd5b503360015f6101000a81548173ffffffffffffffffffffffffffffffffffffffff021916908373ffffffffffffffffffffffffffffffffffffffff1602179055506107cc8061005c5f395ff3fe608060405234801561000f575f80fd5b506004361061003f575f3560e01c80635a9b0b89146100435780638da5cb5b14610061578063937f6e771461007f575b5f80fd5b61004b61009b565b6040516100589190610260565b60405180910390f35b61006961012a565b60405161007691906102bf565b60405180910390f35b61009960048036038101906100949190610415565b61014f565b005b60605f80546100a990610489565b80601f01602080910402602001604051908101604052809291908181526020018280546100d590610489565b80156101205780601f106100f757610100808354040283529160200191610120565b820191905f5260205f20905b81548152906001019060200180831161010357829003601f168201915b5050505050905090565b60015f9054906101000a900473ffffffffffffffffffffffffffffffffffffffff1681565b60015f9054906101000a900473ffffffffffffffffffffffffffffffffffffffff1673ffffffffffffffffffffffffffffffffffffffff163373ffffffffffffffffffffffffffffffffffffffff16146101de576040517f08c379a00000000000000000000000000000000000000000000000000000000081526004016101d590610503565b60405180910390fd5b805f90816101ec91906106c7565b5050565b5f81519050919050565b5f82825260208201905092915050565b8281835e5f83830152505050565b5f601f19601f8301169050919050565b5f610232826101f0565b61023c81856101fa565b935061024c81856020860161020a565b61025581610218565b840191505092915050565b5f6020820190508181035f8301526102788184610228565b905092915050565b5f73ffffffffffffffffffffffffffffffffffffffff82169050919050565b5f6102a982610280565b9050919050565b6102b98161029f565b82525050565b5f6020820190506102d25f8301846102b0565b92915050565b5f604051905090565b5f80fd5b5f80fd5b5f80fd5b5f80fd5b7f4e487b71000000000000000000000000000000000000000000000000000000005f52604160045260245ffd5b61032782610218565b810181811067ffffffffffffffff82111715610346576103456102f1565b5b80604052505050565b5f6103586102d8565b9050610364828261031e565b919050565b5f67ffffffffffffffff821115610383576103826102f1565b5b61038c82610218565b9050602081019050919050565b828183375f83830152505050565b5f6103b96103b484610369565b61034f565b9050828152602081018484840111156103d5576103d46102ed565b5b6103e0848285610399565b509392505050565b5f82601f8301126103fc576103fb6102e9565b5b813561040c8482602086016103a7565b91505092915050565b5f6020828403121561042a576104296102e1565b5b5f82013567ffffffffffffffff811115610447576104466102e5565b5b610453848285016103e8565b91505092915050565b7f4e487b71000000000000000000000000000000000000000000000000000000005f52602260045260245ffd5b5f60028204905060018216806104a057607f821691505b6020821081036104b3576104b261045c565b5b50919050565b7f4f6e6c79206f776e65722063616e207365742074686973207661726961626c655f82015250565b5f6104ed6020836101fa565b91506104f8826104b9565b602082019050919050565b5f6020820190508181035f83015261051a816104e1565b9050919050565b5f819050815f5260205f209050919050565b5f6020601f8301049050919050565b5f82821b905092915050565b5f6008830261057d7fffffffffffffffffffffffffffffffffffffffffffffffffffffffffffffffff82610542565b6105878683610542565b95508019841693508086168417925050509392505050565b5f819050919050565b5f819050919050565b5f6105cb6105c66105c18461059f565b6105a8565b61059f565b9050919050565b5f819050919050565b6105e4836105b1565b6105f86105f0826105d2565b84845461054e565b825550505050565b5f90565b61060c610600565b6106178184846105db565b505050565b5b8181101561063a5761062f5f82610604565b60018101905061061d565b5050565b601f82111561067f5761065081610521565b61065984610533565b81016020851015610668578190505b61067c61067485610533565b83018261061c565b50505b505050565b5f82821c905092915050565b5f61069f5f1984600802610684565b1980831691505092915050565b5f6106b78383610690565b9150826002028217905092915050565b6106d0826101f0565b67ffffffffffffffff8111156106e9576106e86102f1565b5b6106f38254610489565b6106fe82828561063e565b5f60209050601f83116001811461072f575f841561071d578287015190505b61072785826106ac565b86555061078e565b601f19841661073d86610521565b5f5b828110156107645784890151825560018201915060208501945060208101905061073f565b86831015610781578489015161077d601f891682610690565b8355505b6001600288020188555050505b50505050505056fea2646970667358221220643b8009c36161e54163fa2fca28aa8bba5803b1de86565ba722575739a7278f64736f6c63430008190033",
					"opcodes": "PUSH1 0x80 PUSH1 0x40 MSTORE CALLVALUE DUP1 ISZERO PUSH1 0xE JUMPI PUSH0 DUP1 REVERT JUMPDEST POP CALLER PUSH1 0x1 PUSH0 PUSH2 0x100 EXP DUP2 SLOAD DUP2 PUSH20 0xFFFFFFFFFFFFFFFFFFFFFFFFFFFFFFFFFFFFFFFF MUL NOT AND SWAP1 DUP4 PUSH20 0xFFFFFFFFFFFFFFFFFFFFFFFFFFFFFFFFFFFFFFFF AND MUL OR SWAP1 SSTORE POP PUSH2 0x7CC DUP1 PUSH2 0x5C PUSH0 CODECOPY PUSH0 RETURN INVALID PUSH1 0x80 PUSH1 0x40 MSTORE CALLVALUE DUP1 ISZERO PUSH2 0xF JUMPI PUSH0 DUP1 REVERT JUMPDEST POP PUSH1 0x4 CALLDATASIZE LT PUSH2 0x3F JUMPI PUSH0 CALLDATALOAD PUSH1 0xE0 SHR DUP1 PUSH4 0x5A9B0B89 EQ PUSH2 0x43 JUMPI DUP1 PUSH4 0x8DA5CB5B EQ PUSH2 0x61 JUMPI DUP1 PUSH4 0x937F6E77 EQ PUSH2 0x7F JUMPI JUMPDEST PUSH0 DUP1 REVERT JUMPDEST PUSH2 0x4B PUSH2 0x9B JUMP JUMPDEST PUSH1 0x40 MLOAD PUSH2 0x58 SWAP2 SWAP1 PUSH2 0x260 JUMP JUMPDEST PUSH1 0x40 MLOAD DUP1 SWAP2 SUB SWAP1 RETURN JUMPDEST PUSH2 0x69 PUSH2 0x12A JUMP JUMPDEST PUSH1 0x40 MLOAD PUSH2 0x76 SWAP2 SWAP1 PUSH2 0x2BF JUMP JUMPDEST PUSH1 0x40 MLOAD DUP1 SWAP2 SUB SWAP1 RETURN JUMPDEST PUSH2 0x99 PUSH1 0x4 DUP1 CALLDATASIZE SUB DUP2 ADD SWAP1 PUSH2 0x94 SWAP2 SWAP1 PUSH2 0x415 JUMP JUMPDEST PUSH2 0x14F JUMP JUMPDEST STOP JUMPDEST PUSH1 0x60 PUSH0 DUP1 SLOAD PUSH2 0xA9 SWAP1 PUSH2 0x489 JUMP JUMPDEST DUP1 PUSH1 0x1F ADD PUSH1 0x20 DUP1 SWAP2 DIV MUL PUSH1 0x20 ADD PUSH1 0x40 MLOAD SWAP1 DUP2 ADD PUSH1 0x40 MSTORE DUP1 SWAP3 SWAP2 SWAP1 DUP2 DUP2 MSTORE PUSH1 0x20 ADD DUP3 DUP1 SLOAD PUSH2 0xD5 SWAP1 PUSH2 0x489 JUMP JUMPDEST DUP1 ISZERO PUSH2 0x120 JUMPI DUP1 PUSH1 0x1F LT PUSH2 0xF7 JUMPI PUSH2 0x100 DUP1 DUP4 SLOAD DIV MUL DUP4 MSTORE SWAP2 PUSH1 0x20 ADD SWAP2 PUSH2 0x120 JUMP JUMPDEST DUP3 ADD SWAP2 SWAP1 PUSH0 MSTORE PUSH1 0x20 PUSH0 KECCAK256 SWAP1 JUMPDEST DUP2 SLOAD DUP2 MSTORE SWAP1 PUSH1 0x1 ADD SWAP1 PUSH1 0x20 ADD DUP1 DUP4 GT PUSH2 0x103 JUMPI DUP3 SWAP1 SUB PUSH1 0x1F AND DUP3 ADD SWAP2 JUMPDEST POP POP POP POP POP SWAP1 POP SWAP1 JUMP JUMPDEST PUSH1 0x1 PUSH0 SWAP1 SLOAD SWAP1 PUSH2 0x100 EXP SWAP1 DIV PUSH20 0xFFFFFFFFFFFFFFFFFFFFFFFFFFFFFFFFFFFFFFFF AND DUP2 JUMP JUMPDEST PUSH1 0x1 PUSH0 SWAP1 SLOAD SWAP1 PUSH2 0x100 EXP SWAP1 DIV PUSH20 0xFFFFFFFFFFFFFFFFFFFFFFFFFFFFFFFFFFFFFFFF AND PUSH20 0xFFFFFFFFFFFFFFFFFFFFFFFFFFFFFFFFFFFFFFFF AND CALLER PUSH20 0xFFFFFFFFFFFFFFFFFFFFFFFFFFFFFFFFFFFFFFFF AND EQ PUSH2 0x1DE JUMPI PUSH1 0x40 MLOAD PUSH32 0x8C379A000000000000000000000000000000000000000000000000000000000 DUP2 MSTORE PUSH1 0x4 ADD PUSH2 0x1D5 SWAP1 PUSH2 0x503 JUMP JUMPDEST PUSH1 0x40 MLOAD DUP1 SWAP2 SUB SWAP1 REVERT JUMPDEST DUP1 PUSH0 SWAP1 DUP2 PUSH2 0x1EC SWAP2 SWAP1 PUSH2 0x6C7 JUMP JUMPDEST POP POP JUMP JUMPDEST PUSH0 DUP2 MLOAD SWAP1 POP SWAP2 SWAP1 POP JUMP JUMPDEST PUSH0 DUP3 DUP3 MSTORE PUSH1 0x20 DUP3 ADD SWAP1 POP SWAP3 SWAP2 POP POP JUMP JUMPDEST DUP3 DUP2 DUP4 MCOPY PUSH0 DUP4 DUP4 ADD MSTORE POP POP POP JUMP JUMPDEST PUSH0 PUSH1 0x1F NOT PUSH1 0x1F DUP4 ADD AND SWAP1 POP SWAP2 SWAP1 POP JUMP JUMPDEST PUSH0 PUSH2 0x232 DUP3 PUSH2 0x1F0 JUMP JUMPDEST PUSH2 0x23C DUP2 DUP6 PUSH2 0x1FA JUMP JUMPDEST SWAP4 POP PUSH2 0x24C DUP2 DUP6 PUSH1 0x20 DUP7 ADD PUSH2 0x20A JUMP JUMPDEST PUSH2 0x255 DUP2 PUSH2 0x218 JUMP JUMPDEST DUP5 ADD SWAP2 POP POP SWAP3 SWAP2 POP POP JUMP JUMPDEST PUSH0 PUSH1 0x20 DUP3 ADD SWAP1 POP DUP2 DUP2 SUB PUSH0 DUP4 ADD MSTORE PUSH2 0x278 DUP2 DUP5 PUSH2 0x228 JUMP JUMPDEST SWAP1 POP SWAP3 SWAP2 POP POP JUMP JUMPDEST PUSH0 PUSH20 0xFFFFFFFFFFFFFFFFFFFFFFFFFFFFFFFFFFFFFFFF DUP3 AND SWAP1 POP SWAP2 SWAP1 POP JUMP JUMPDEST PUSH0 PUSH2 0x2A9 DUP3 PUSH2 0x280 JUMP JUMPDEST SWAP1 POP SWAP2 SWAP1 POP JUMP JUMPDEST PUSH2 0x2B9 DUP2 PUSH2 0x29F JUMP JUMPDEST DUP3 MSTORE POP POP JUMP JUMPDEST PUSH0 PUSH1 0x20 DUP3 ADD SWAP1 POP PUSH2 0x2D2 PUSH0 DUP4 ADD DUP5 PUSH2 0x2B0 JUMP JUMPDEST SWAP3 SWAP2 POP POP JUMP JUMPDEST PUSH0 PUSH1 0x40 MLOAD SWAP1 POP SWAP1 JUMP JUMPDEST PUSH0 DUP1 REVERT JUMPDEST PUSH0 DUP1 REVERT JUMPDEST PUSH0 DUP1 REVERT JUMPDEST PUSH0 DUP1 REVERT JUMPDEST PUSH32 0x4E487B7100000000000000000000000000000000000000000000000000000000 PUSH0 MSTORE PUSH1 0x41 PUSH1 0x4 MSTORE PUSH1 0x24 PUSH0 REVERT JUMPDEST PUSH2 0x327 DUP3 PUSH2 0x218 JUMP JUMPDEST DUP2 ADD DUP2 DUP2 LT PUSH8 0xFFFFFFFFFFFFFFFF DUP3 GT OR ISZERO PUSH2 0x346 JUMPI PUSH2 0x345 PUSH2 0x2F1 JUMP JUMPDEST JUMPDEST DUP1 PUSH1 0x40 MSTORE POP POP POP JUMP JUMPDEST PUSH0 PUSH2 0x358 PUSH2 0x2D8 JUMP JUMPDEST SWAP1 POP PUSH2 0x364 DUP3 DUP3 PUSH2 0x31E JUMP JUMPDEST SWAP2 SWAP1 POP JUMP JUMPDEST PUSH0 PUSH8 0xFFFFFFFFFFFFFFFF DUP3 GT ISZERO PUSH2 0x383 JUMPI PUSH2 0x382 PUSH2 0x2F1 JUMP JUMPDEST JUMPDEST PUSH2 0x38C DUP3 PUSH2 0x218 JUMP JUMPDEST SWAP1 POP PUSH1 0x20 DUP2 ADD SWAP1 POP SWAP2 SWAP1 POP JUMP JUMPDEST DUP3 DUP2 DUP4 CALLDATACOPY PUSH0 DUP4 DUP4 ADD MSTORE POP POP POP JUMP JUMPDEST PUSH0 PUSH2 0x3B9 PUSH2 0x3B4 DUP5 PUSH2 0x369 JUMP JUMPDEST PUSH2 0x34F JUMP JUMPDEST SWAP1 POP DUP3 DUP2 MSTORE PUSH1 0x20 DUP2 ADD DUP5 DUP5 DUP5 ADD GT ISZERO PUSH2 0x3D5 JUMPI PUSH2 0x3D4 PUSH2 0x2ED JUMP JUMPDEST JUMPDEST PUSH2 0x3E0 DUP5 DUP3 DUP6 PUSH2 0x399 JUMP JUMPDEST POP SWAP4 SWAP3 POP POP POP JUMP JUMPDEST PUSH0 DUP3 PUSH1 0x1F DUP4 ADD SLT PUSH2 0x3FC JUMPI PUSH2 0x3FB PUSH2 0x2E9 JUMP JUMPDEST JUMPDEST DUP2 CALLDATALOAD PUSH2 0x40C DUP5 DUP3 PUSH1 0x20 DUP7 ADD PUSH2 0x3A7 JUMP JUMPDEST SWAP2 POP POP SWAP3 SWAP2 POP POP JUMP JUMPDEST PUSH0 PUSH1 0x20 DUP3 DUP5 SUB SLT ISZERO PUSH2 0x42A JUMPI PUSH2 0x429 PUSH2 0x2E1 JUMP JUMPDEST JUMPDEST PUSH0 DUP3 ADD CALLDATALOAD PUSH8 0xFFFFFFFFFFFFFFFF DUP2 GT ISZERO PUSH2 0x447 JUMPI PUSH2 0x446 PUSH2 0x2E5 JUMP JUMPDEST JUMPDEST PUSH2 0x453 DUP5 DUP3 DUP6 ADD PUSH2 0x3E8 JUMP JUMPDEST SWAP2 POP POP SWAP3 SWAP2 POP POP JUMP JUMPDEST PUSH32 0x4E487B7100000000000000000000000000000000000000000000000000000000 PUSH0 MSTORE PUSH1 0x22 PUSH1 0x4 MSTORE PUSH1 0x24 PUSH0 REVERT JUMPDEST PUSH0 PUSH1 0x2 DUP3 DIV SWAP1 POP PUSH1 0x1 DUP3 AND DUP1 PUSH2 0x4A0 JUMPI PUSH1 0x7F DUP3 AND SWAP2 POP JUMPDEST PUSH1 0x20 DUP3 LT DUP2 SUB PUSH2 0x4B3 JUMPI PUSH2 0x4B2 PUSH2 0x45C JUMP JUMPDEST JUMPDEST POP SWAP2 SWAP1 POP JUMP JUMPDEST PUSH32 0x4F6E6C79206F776E65722063616E207365742074686973207661726961626C65 PUSH0 DUP3 ADD MSTORE POP JUMP JUMPDEST PUSH0 PUSH2 0x4ED PUSH1 0x20 DUP4 PUSH2 0x1FA JUMP JUMPDEST SWAP2 POP PUSH2 0x4F8 DUP3 PUSH2 0x4B9 JUMP JUMPDEST PUSH1 0x20 DUP3 ADD SWAP1 POP SWAP2 SWAP1 POP JUMP JUMPDEST PUSH0 PUSH1 0x20 DUP3 ADD SWAP1 POP DUP2 DUP2 SUB PUSH0 DUP4 ADD MSTORE PUSH2 0x51A DUP2 PUSH2 0x4E1 JUMP JUMPDEST SWAP1 POP SWAP2 SWAP1 POP JUMP JUMPDEST PUSH0 DUP2 SWAP1 POP DUP2 PUSH0 MSTORE PUSH1 0x20 PUSH0 KECCAK256 SWAP1 POP SWAP2 SWAP1 POP JUMP JUMPDEST PUSH0 PUSH1 0x20 PUSH1 0x1F DUP4 ADD DIV SWAP1 POP SWAP2 SWAP1 POP JUMP JUMPDEST PUSH0 DUP3 DUP3 SHL SWAP1 POP SWAP3 SWAP2 POP POP JUMP JUMPDEST PUSH0 PUSH1 0x8 DUP4 MUL PUSH2 0x57D PUSH32 0xFFFFFFFFFFFFFFFFFFFFFFFFFFFFFFFFFFFFFFFFFFFFFFFFFFFFFFFFFFFFFFFF DUP3 PUSH2 0x542 JUMP JUMPDEST PUSH2 0x587 DUP7 DUP4 PUSH2 0x542 JUMP JUMPDEST SWAP6 POP DUP1 NOT DUP5 AND SWAP4 POP DUP1 DUP7 AND DUP5 OR SWAP3 POP POP POP SWAP4 SWAP3 POP POP POP JUMP JUMPDEST PUSH0 DUP2 SWAP1 POP SWAP2 SWAP1 POP JUMP JUMPDEST PUSH0 DUP2 SWAP1 POP SWAP2 SWAP1 POP JUMP JUMPDEST PUSH0 PUSH2 0x5CB PUSH2 0x5C6 PUSH2 0x5C1 DUP5 PUSH2 0x59F JUMP JUMPDEST PUSH2 0x5A8 JUMP JUMPDEST PUSH2 0x59F JUMP JUMPDEST SWAP1 POP SWAP2 SWAP1 POP JUMP JUMPDEST PUSH0 DUP2 SWAP1 POP SWAP2 SWAP1 POP JUMP JUMPDEST PUSH2 0x5E4 DUP4 PUSH2 0x5B1 JUMP JUMPDEST PUSH2 0x5F8 PUSH2 0x5F0 DUP3 PUSH2 0x5D2 JUMP JUMPDEST DUP5 DUP5 SLOAD PUSH2 0x54E JUMP JUMPDEST DUP3 SSTORE POP POP POP POP JUMP JUMPDEST PUSH0 SWAP1 JUMP JUMPDEST PUSH2 0x60C PUSH2 0x600 JUMP JUMPDEST PUSH2 0x617 DUP2 DUP5 DUP5 PUSH2 0x5DB JUMP JUMPDEST POP POP POP JUMP JUMPDEST JUMPDEST DUP2 DUP2 LT ISZERO PUSH2 0x63A JUMPI PUSH2 0x62F PUSH0 DUP3 PUSH2 0x604 JUMP JUMPDEST PUSH1 0x1 DUP2 ADD SWAP1 POP PUSH2 0x61D JUMP JUMPDEST POP POP JUMP JUMPDEST PUSH1 0x1F DUP3 GT ISZERO PUSH2 0x67F JUMPI PUSH2 0x650 DUP2 PUSH2 0x521 JUMP JUMPDEST PUSH2 0x659 DUP5 PUSH2 0x533 JUMP JUMPDEST DUP2 ADD PUSH1 0x20 DUP6 LT ISZERO PUSH2 0x668 JUMPI DUP2 SWAP1 POP JUMPDEST PUSH2 0x67C PUSH2 0x674 DUP6 PUSH2 0x533 JUMP JUMPDEST DUP4 ADD DUP3 PUSH2 0x61C JUMP JUMPDEST POP POP JUMPDEST POP POP POP JUMP JUMPDEST PUSH0 DUP3 DUP3 SHR SWAP1 POP SWAP3 SWAP2 POP POP JUMP JUMPDEST PUSH0 PUSH2 0x69F PUSH0 NOT DUP5 PUSH1 0x8 MUL PUSH2 0x684 JUMP JUMPDEST NOT DUP1 DUP4 AND SWAP2 POP POP SWAP3 SWAP2 POP POP JUMP JUMPDEST PUSH0 PUSH2 0x6B7 DUP4 DUP4 PUSH2 0x690 JUMP JUMPDEST SWAP2 POP DUP3 PUSH1 0x2 MUL DUP3 OR SWAP1 POP SWAP3 SWAP2 POP POP JUMP JUMPDEST PUSH2 0x6D0 DUP3 PUSH2 0x1F0 JUMP JUMPDEST PUSH8 0xFFFFFFFFFFFFFFFF DUP2 GT ISZERO PUSH2 0x6E9 JUMPI PUSH2 0x6E8 PUSH2 0x2F1 JUMP JUMPDEST JUMPDEST PUSH2 0x6F3 DUP3 SLOAD PUSH2 0x489 JUMP JUMPDEST PUSH2 0x6FE DUP3 DUP3 DUP6 PUSH2 0x63E JUMP JUMPDEST PUSH0 PUSH1 0x20 SWAP1 POP PUSH1 0x1F DUP4 GT PUSH1 0x1 DUP2 EQ PUSH2 0x72F JUMPI PUSH0 DUP5 ISZERO PUSH2 0x71D JUMPI DUP3 DUP8 ADD MLOAD SWAP1 POP JUMPDEST PUSH2 0x727 DUP6 DUP3 PUSH2 0x6AC JUMP JUMPDEST DUP7 SSTORE POP PUSH2 0x78E JUMP JUMPDEST PUSH1 0x1F NOT DUP5 AND PUSH2 0x73D DUP7 PUSH2 0x521 JUMP JUMPDEST PUSH0 JUMPDEST DUP3 DUP2 LT ISZERO PUSH2 0x764 JUMPI DUP5 DUP10 ADD MLOAD DUP3 SSTORE PUSH1 0x1 DUP3 ADD SWAP2 POP PUSH1 0x20 DUP6 ADD SWAP5 POP PUSH1 0x20 DUP2 ADD SWAP1 POP PUSH2 0x73F JUMP JUMPDEST DUP7 DUP4 LT ISZERO PUSH2 0x781 JUMPI DUP5 DUP10 ADD MLOAD PUSH2 0x77D PUSH1 0x1F DUP10 AND DUP3 PUSH2 0x690 JUMP JUMPDEST DUP4 SSTORE POP JUMPDEST PUSH1 0x1 PUSH1 0x2 DUP9 MUL ADD DUP9 SSTORE POP POP POP JUMPDEST POP POP POP POP POP POP JUMP INVALID LOG2 PUSH5 0x6970667358 0x22 SLT KECCAK256 PUSH5 0x3B8009C361 PUSH2 0xE541 PUSH4 0xFA2FCA28 0xAA DUP12 0xBA PC SUB 0xB1 0xDE DUP7 JUMP JUMPDEST 0xA7 0x22 JUMPI JUMPI CODECOPY 0xA7 0x27 DUP16 PUSH5 0x736F6C6343 STOP ADDMOD NOT STOP CALLER "
				},
				"gasEstimates": {
					"creation": {
						"codeDepositCost": "399200",
						"executionCost": "24699",
						"totalCost": "423899"
					},
					"external": {
						"getInfo()": "infinite",
						"owner()": "2508",
						"setInfo(string)": "infinite"
					}
				},
				"methodIdentifiers": {
					"getInfo()": "5a9b0b89",
					"owner()": "8da5cb5b",
					"setInfo(string)": "937f6e77"
				}
			},
			"storageLayout": {
				"storage": [
					{
						"astId": 4,
						"contract": "playground2.sol:Owner",
						"label": "storedInfo",
						"offset": 0,
						"slot": "0",
						"type": "t_string_storage"
					},
					{
						"astId": 6,
						"contract": "playground2.sol:Owner",
						"label": "owner",
						"offset": 0,
						"slot": "1",
						"type": "t_address"
					}
				],
				"types": {
					"t_address": {
						"encoding": "inplace",
						"label": "address",
						"numberOfBytes": "20"
					},
					"t_string_storage": {
						"encoding": "bytes",
						"label": "string",
						"numberOfBytes": "32"
					}
				}
			},
			"userdoc": {
				"kind": "user",
				"methods": {
					"setInfo(string)": {
						"notice": "La función setInfo verifica si quien envía la transacción es el dueño del contrato. Si es así, modifica el valor de la variable. Sino no hace nada."
					}
				},
				"version": 1
			}
		}
	}
}