{
	"playground4.sol": {
		"ArraysDS": {
			"abi": [
				{
					"inputs": [],
					"name": "deleteLastElement",
					"outputs": [
						{
							"internalType": "int256[]",
							"name": "",
							"type": "int256[]"
						}
					],
					"stateMutability": "nonpayable",
					"type": "function"
				},
				{
					"inputs": [],
					"name": "store",
					"outputs": [
						{
							"internalType": "int256[]",
							"name": "",
							"type": "int256[]"
						}
					],
					"stateMutability": "nonpayable",
					"type": "function"
				}
			],
			"devdoc": {
				"kind": "dev",
				"methods": {},
				"version": 1
			},
			"evm": {
				"assembly": "    /* \"playground4.sol\":58:497  contract ArraysDS { ... */\n  mstore(0x40, 0x80)\n  callvalue\n  dup1\n  iszero\n  tag_1\n  jumpi\n  0x00\n  dup1\n  revert\ntag_1:\n  pop\n  dataSize(sub_0)\n  dup1\n  dataOffset(sub_0)\n  0x00\n  codecopy\n  0x00\n  return\nstop\n\nsub_0: assembly {\n        /* \"playground4.sol\":58:497  contract ArraysDS { ... */\n      mstore(0x40, 0x80)\n      callvalue\n      dup1\n      iszero\n      tag_1\n      jumpi\n      0x00\n      dup1\n      revert\n    tag_1:\n      pop\n      jumpi(tag_2, lt(calldatasize, 0x04))\n      shr(0xe0, calldataload(0x00))\n      dup1\n      0x975057e7\n      eq\n      tag_3\n      jumpi\n      dup1\n      0xf8bd7772\n      eq\n      tag_4\n      jumpi\n    tag_2:\n      0x00\n      dup1\n      revert\n        /* \"playground4.sol\":198:333  function store() public returns (int[] memory){ ... */\n    tag_3:\n      tag_5\n      tag_6\n      jump\t// in\n    tag_5:\n      mload(0x40)\n      tag_7\n      swap2\n      swap1\n      tag_8\n      jump\t// in\n    tag_7:\n      mload(0x40)\n      dup1\n      swap2\n      sub\n      swap1\n      return\n        /* \"playground4.sol\":391:494  function deleteLastElement() public returns(int[] memory){... */\n    tag_4:\n      tag_9\n      tag_10\n      jump\t// in\n    tag_9:\n      mload(0x40)\n      tag_11\n      swap2\n      swap1\n      tag_8\n      jump\t// in\n    tag_11:\n      mload(0x40)\n      dup1\n      swap2\n      sub\n      swap1\n      return\n        /* \"playground4.sol\":198:333  function store() public returns (int[] memory){ ... */\n    tag_6:\n        /* \"playground4.sol\":231:243  int[] memory */\n      0x60\n        /* \"playground4.sol\":250:257  numbers */\n      0x00\n        /* \"playground4.sol\":263:264  5 */\n      0x05\n        /* \"playground4.sol\":250:265  numbers.push(5) */\n      swap1\n      dup1\n      0x01\n      dup2\n      sload\n      add\n      dup1\n      dup3\n      sstore\n      dup1\n      swap2\n      pop\n      pop\n      0x01\n      swap1\n      sub\n      swap1\n      0x00\n      mstore\n      keccak256(0x00, 0x20)\n      add\n      0x00\n      swap1\n      swap2\n      swap1\n      swap2\n      swap1\n      swap2\n      pop\n      sstore\n        /* \"playground4.sol\":270:277  numbers */\n      0x00\n        /* \"playground4.sol\":283:285  10 */\n      0x0a\n        /* \"playground4.sol\":270:286  numbers.push(10) */\n      swap1\n      dup1\n      0x01\n      dup2\n      sload\n      add\n      dup1\n      dup3\n      sstore\n      dup1\n      swap2\n      pop\n      pop\n      0x01\n      swap1\n      sub\n      swap1\n      0x00\n      mstore\n      keccak256(0x00, 0x20)\n      add\n      0x00\n      swap1\n      swap2\n      swap1\n      swap2\n      swap1\n      swap2\n      pop\n      sstore\n        /* \"playground4.sol\":291:298  numbers */\n      0x00\n        /* \"playground4.sol\":304:306  20 */\n      0x14\n        /* \"playground4.sol\":291:307  numbers.push(20) */\n      swap1\n      dup1\n      0x01\n      dup2\n      sload\n      add\n      dup1\n      dup3\n      sstore\n      dup1\n      swap2\n      pop\n      pop\n      0x01\n      swap1\n      sub\n      swap1\n      0x00\n      mstore\n      keccak256(0x00, 0x20)\n      add\n      0x00\n      swap1\n      swap2\n      swap1\n      swap2\n      swap1\n      swap2\n      pop\n      sstore\n        /* \"playground4.sol\":320:327  numbers */\n      0x00\n        /* \"playground4.sol\":312:327  return  numbers */\n      dup1\n      sload\n      dup1\n      0x20\n      mul\n      0x20\n      add\n      mload(0x40)\n      swap1\n      dup2\n      add\n      0x40\n      mstore\n      dup1\n      swap3\n      swap2\n      swap1\n      dup2\n      dup2\n      mstore\n      0x20\n      add\n      dup3\n      dup1\n      sload\n      dup1\n      iszero\n      tag_16\n      jumpi\n      0x20\n      mul\n      dup3\n      add\n      swap2\n      swap1\n      0x00\n      mstore\n      keccak256(0x00, 0x20)\n      swap1\n    tag_17:\n      dup2\n      sload\n      dup2\n      mstore\n      0x20\n      add\n      swap1\n      0x01\n      add\n      swap1\n      dup1\n      dup4\n      gt\n      tag_17\n      jumpi\n    tag_16:\n      pop\n      pop\n      pop\n      pop\n      pop\n      swap1\n      pop\n        /* \"playground4.sol\":198:333  function store() public returns (int[] memory){ ... */\n      swap1\n      jump\t// out\n        /* \"playground4.sol\":391:494  function deleteLastElement() public returns(int[] memory){... */\n    tag_10:\n        /* \"playground4.sol\":435:447  int[] memory */\n      0x60\n        /* \"playground4.sol\":454:461  numbers */\n      0x00\n        /* \"playground4.sol\":454:467  numbers.pop() */\n      dup1\n      sload\n      dup1\n      tag_19\n      jumpi\n      tag_20\n      tag_21\n      jump\t// in\n    tag_20:\n    tag_19:\n      0x01\n      swap1\n      sub\n      dup2\n      dup2\n      swap1\n      0x00\n      mstore\n      keccak256(0x00, 0x20)\n      add\n      0x00\n      swap1\n      sstore\n      swap1\n      sstore\n        /* \"playground4.sol\":480:487  numbers */\n      0x00\n        /* \"playground4.sol\":473:487  return numbers */\n      dup1\n      sload\n      dup1\n      0x20\n      mul\n      0x20\n      add\n      mload(0x40)\n      swap1\n      dup2\n      add\n      0x40\n      mstore\n      dup1\n      swap3\n      swap2\n      swap1\n      dup2\n      dup2\n      mstore\n      0x20\n      add\n      dup3\n      dup1\n      sload\n      dup1\n      iszero\n      tag_23\n      jumpi\n      0x20\n      mul\n      dup3\n      add\n      swap2\n      swap1\n      0x00\n      mstore\n      keccak256(0x00, 0x20)\n      swap1\n    tag_24:\n      dup2\n      sload\n      dup2\n      mstore\n      0x20\n      add\n      swap1\n      0x01\n      add\n      swap1\n      dup1\n      dup4\n      gt\n      tag_24\n      jumpi\n    tag_23:\n      pop\n      pop\n      pop\n      pop\n      pop\n      swap1\n      pop\n        /* \"playground4.sol\":391:494  function deleteLastElement() public returns(int[] memory){... */\n      swap1\n      jump\t// out\n        /* \"#utility.yul\":7:120   */\n    tag_25:\n        /* \"#utility.yul\":73:79   */\n      0x00\n        /* \"#utility.yul\":107:112   */\n      dup2\n        /* \"#utility.yul\":101:113   */\n      mload\n        /* \"#utility.yul\":91:113   */\n      swap1\n      pop\n        /* \"#utility.yul\":7:120   */\n      swap2\n      swap1\n      pop\n      jump\t// out\n        /* \"#utility.yul\":126:309   */\n    tag_26:\n        /* \"#utility.yul\":224:235   */\n      0x00\n        /* \"#utility.yul\":258:264   */\n      dup3\n        /* \"#utility.yul\":253:256   */\n      dup3\n        /* \"#utility.yul\":246:265   */\n      mstore\n        /* \"#utility.yul\":298:302   */\n      0x20\n        /* \"#utility.yul\":293:296   */\n      dup3\n        /* \"#utility.yul\":289:303   */\n      add\n        /* \"#utility.yul\":274:303   */\n      swap1\n      pop\n        /* \"#utility.yul\":126:309   */\n      swap3\n      swap2\n      pop\n      pop\n      jump\t// out\n        /* \"#utility.yul\":315:446   */\n    tag_27:\n        /* \"#utility.yul\":381:385   */\n      0x00\n        /* \"#utility.yul\":404:407   */\n      dup2\n        /* \"#utility.yul\":396:407   */\n      swap1\n      pop\n        /* \"#utility.yul\":434:438   */\n      0x20\n        /* \"#utility.yul\":429:432   */\n      dup3\n        /* \"#utility.yul\":425:439   */\n      add\n        /* \"#utility.yul\":417:439   */\n      swap1\n      pop\n        /* \"#utility.yul\":315:446   */\n      swap2\n      swap1\n      pop\n      jump\t// out\n        /* \"#utility.yul\":452:528   */\n    tag_28:\n        /* \"#utility.yul\":488:495   */\n      0x00\n        /* \"#utility.yul\":517:522   */\n      dup2\n        /* \"#utility.yul\":506:522   */\n      swap1\n      pop\n        /* \"#utility.yul\":452:528   */\n      swap2\n      swap1\n      pop\n      jump\t// out\n        /* \"#utility.yul\":534:639   */\n    tag_29:\n        /* \"#utility.yul\":609:632   */\n      tag_39\n        /* \"#utility.yul\":626:631   */\n      dup2\n        /* \"#utility.yul\":609:632   */\n      tag_28\n      jump\t// in\n    tag_39:\n        /* \"#utility.yul\":604:607   */\n      dup3\n        /* \"#utility.yul\":597:633   */\n      mstore\n        /* \"#utility.yul\":534:639   */\n      pop\n      pop\n      jump\t// out\n        /* \"#utility.yul\":645:820   */\n    tag_30:\n        /* \"#utility.yul\":712:722   */\n      0x00\n        /* \"#utility.yul\":733:777   */\n      tag_41\n        /* \"#utility.yul\":773:776   */\n      dup4\n        /* \"#utility.yul\":765:771   */\n      dup4\n        /* \"#utility.yul\":733:777   */\n      tag_29\n      jump\t// in\n    tag_41:\n        /* \"#utility.yul\":809:813   */\n      0x20\n        /* \"#utility.yul\":804:807   */\n      dup4\n        /* \"#utility.yul\":800:814   */\n      add\n        /* \"#utility.yul\":786:814   */\n      swap1\n      pop\n        /* \"#utility.yul\":645:820   */\n      swap3\n      swap2\n      pop\n      pop\n      jump\t// out\n        /* \"#utility.yul\":826:938   */\n    tag_31:\n        /* \"#utility.yul\":895:899   */\n      0x00\n        /* \"#utility.yul\":927:931   */\n      0x20\n        /* \"#utility.yul\":922:925   */\n      dup3\n        /* \"#utility.yul\":918:932   */\n      add\n        /* \"#utility.yul\":910:932   */\n      swap1\n      pop\n        /* \"#utility.yul\":826:938   */\n      swap2\n      swap1\n      pop\n      jump\t// out\n        /* \"#utility.yul\":972:1696   */\n    tag_32:\n        /* \"#utility.yul\":1089:1092   */\n      0x00\n        /* \"#utility.yul\":1118:1171   */\n      tag_44\n        /* \"#utility.yul\":1165:1170   */\n      dup3\n        /* \"#utility.yul\":1118:1171   */\n      tag_25\n      jump\t// in\n    tag_44:\n        /* \"#utility.yul\":1187:1272   */\n      tag_45\n        /* \"#utility.yul\":1265:1271   */\n      dup2\n        /* \"#utility.yul\":1260:1263   */\n      dup6\n        /* \"#utility.yul\":1187:1272   */\n      tag_26\n      jump\t// in\n    tag_45:\n        /* \"#utility.yul\":1180:1272   */\n      swap4\n      pop\n        /* \"#utility.yul\":1296:1351   */\n      tag_46\n        /* \"#utility.yul\":1345:1350   */\n      dup4\n        /* \"#utility.yul\":1296:1351   */\n      tag_27\n      jump\t// in\n    tag_46:\n        /* \"#utility.yul\":1374:1381   */\n      dup1\n        /* \"#utility.yul\":1405:1406   */\n      0x00\n        /* \"#utility.yul\":1390:1671   */\n    tag_47:\n        /* \"#utility.yul\":1415:1421   */\n      dup4\n        /* \"#utility.yul\":1412:1413   */\n      dup2\n        /* \"#utility.yul\":1409:1422   */\n      lt\n        /* \"#utility.yul\":1390:1671   */\n      iszero\n      tag_49\n      jumpi\n        /* \"#utility.yul\":1491:1497   */\n      dup2\n        /* \"#utility.yul\":1485:1498   */\n      mload\n        /* \"#utility.yul\":1518:1579   */\n      tag_50\n        /* \"#utility.yul\":1575:1578   */\n      dup9\n        /* \"#utility.yul\":1560:1573   */\n      dup3\n        /* \"#utility.yul\":1518:1579   */\n      tag_30\n      jump\t// in\n    tag_50:\n        /* \"#utility.yul\":1511:1579   */\n      swap8\n      pop\n        /* \"#utility.yul\":1602:1661   */\n      tag_51\n        /* \"#utility.yul\":1654:1660   */\n      dup4\n        /* \"#utility.yul\":1602:1661   */\n      tag_31\n      jump\t// in\n    tag_51:\n        /* \"#utility.yul\":1592:1661   */\n      swap3\n      pop\n        /* \"#utility.yul\":1450:1671   */\n      pop\n        /* \"#utility.yul\":1437:1438   */\n      0x01\n        /* \"#utility.yul\":1434:1435   */\n      dup2\n        /* \"#utility.yul\":1430:1439   */\n      add\n        /* \"#utility.yul\":1425:1439   */\n      swap1\n      pop\n        /* \"#utility.yul\":1390:1671   */\n      jump(tag_47)\n    tag_49:\n        /* \"#utility.yul\":1394:1408   */\n      pop\n        /* \"#utility.yul\":1687:1690   */\n      dup6\n        /* \"#utility.yul\":1680:1690   */\n      swap4\n      pop\n        /* \"#utility.yul\":1094:1696   */\n      pop\n      pop\n      pop\n        /* \"#utility.yul\":972:1696   */\n      swap3\n      swap2\n      pop\n      pop\n      jump\t// out\n        /* \"#utility.yul\":1702:2071   */\n    tag_8:\n        /* \"#utility.yul\":1843:1847   */\n      0x00\n        /* \"#utility.yul\":1881:1883   */\n      0x20\n        /* \"#utility.yul\":1870:1879   */\n      dup3\n        /* \"#utility.yul\":1866:1884   */\n      add\n        /* \"#utility.yul\":1858:1884   */\n      swap1\n      pop\n        /* \"#utility.yul\":1930:1939   */\n      dup2\n        /* \"#utility.yul\":1924:1928   */\n      dup2\n        /* \"#utility.yul\":1920:1940   */\n      sub\n        /* \"#utility.yul\":1916:1917   */\n      0x00\n        /* \"#utility.yul\":1905:1914   */\n      dup4\n        /* \"#utility.yul\":1901:1918   */\n      add\n        /* \"#utility.yul\":1894:1941   */\n      mstore\n        /* \"#utility.yul\":1958:2064   */\n      tag_53\n        /* \"#utility.yul\":2059:2063   */\n      dup2\n        /* \"#utility.yul\":2050:2056   */\n      dup5\n        /* \"#utility.yul\":1958:2064   */\n      tag_32\n      jump\t// in\n    tag_53:\n        /* \"#utility.yul\":1950:2064   */\n      swap1\n      pop\n        /* \"#utility.yul\":1702:2071   */\n      swap3\n      swap2\n      pop\n      pop\n      jump\t// out\n        /* \"#utility.yul\":2077:2257   */\n    tag_21:\n        /* \"#utility.yul\":2125:2202   */\n      0x4e487b7100000000000000000000000000000000000000000000000000000000\n        /* \"#utility.yul\":2122:2123   */\n      0x00\n        /* \"#utility.yul\":2115:2203   */\n      mstore\n        /* \"#utility.yul\":2222:2226   */\n      0x31\n        /* \"#utility.yul\":2219:2220   */\n      0x04\n        /* \"#utility.yul\":2212:2227   */\n      mstore\n        /* \"#utility.yul\":2246:2250   */\n      0x24\n        /* \"#utility.yul\":2243:2244   */\n      0x00\n        /* \"#utility.yul\":2236:2251   */\n      revert\n\n    auxdata: 0xa2646970667358221220ea09a19536b0853bc760a1c1490ffa0cc4327acf8d3a075f7742c10aa642528664736f6c63430008190033\n}\n",
				"bytecode": {
					"linkReferences": {},
					"object": "6080604052348015600e575f80fd5b506102f78061001c5f395ff3fe608060405234801561000f575f80fd5b5060043610610034575f3560e01c8063975057e714610038578063f8bd777214610056575b5f80fd5b610040610074565b60405161004d9190610274565b60405180910390f35b61005e61013b565b60405161006b9190610274565b60405180910390f35b60605f6005908060018154018082558091505060019003905f5260205f20015f90919091909150555f600a908060018154018082558091505060019003905f5260205f20015f90919091909150555f6014908060018154018082558091505060019003905f5260205f20015f90919091909150555f80548060200260200160405190810160405280929190818152602001828054801561013157602002820191905f5260205f20905b81548152602001906001019080831161011d575b5050505050905090565b60605f80548061014e5761014d610294565b5b600190038181905f5260205f20015f905590555f8054806020026020016040519081016040528092919081815260200182805480156101aa57602002820191905f5260205f20905b815481526020019060010190808311610196575b5050505050905090565b5f81519050919050565b5f82825260208201905092915050565b5f819050602082019050919050565b5f819050919050565b6101ef816101dd565b82525050565b5f61020083836101e6565b60208301905092915050565b5f602082019050919050565b5f610222826101b4565b61022c81856101be565b9350610237836101ce565b805f5b8381101561026757815161024e88826101f5565b97506102598361020c565b92505060018101905061023a565b5085935050505092915050565b5f6020820190508181035f83015261028c8184610218565b905092915050565b7f4e487b71000000000000000000000000000000000000000000000000000000005f52603160045260245ffdfea2646970667358221220ea09a19536b0853bc760a1c1490ffa0cc4327acf8d3a075f7742c10aa642528664736f6c63430008190033",
					"opcodes": "PUSH1 0x80 PUSH1 0x40 MSTORE CALLVALUE DUP1 ISZERO PUSH1 0xE JUMPI PUSH0 DUP1 REVERT JUMPDEST POP PUSH2 0x2F7 DUP1 PUSH2 0x1C PUSH0 CODECOPY PUSH0 RETURN INVALID PUSH1 0x80 PUSH1 0x40 MSTORE CALLVALUE DUP1 ISZERO PUSH2 0xF JUMPI PUSH0 DUP1 REVERT JUMPDEST POP PUSH1 0x4 CALLDATASIZE LT PUSH2 0x34 JUMPI PUSH0 CALLDATALOAD PUSH1 0xE0 SHR DUP1 PUSH4 0x975057E7 EQ PUSH2 0x38 JUMPI DUP1 PUSH4 0xF8BD7772 EQ PUSH2 0x56 JUMPI JUMPDEST PUSH0 DUP1 REVERT JUMPDEST PUSH2 0x40 PUSH2 0x74 JUMP JUMPDEST PUSH1 0x40 MLOAD PUSH2 0x4D SWAP2 SWAP1 PUSH2 0x274 JUMP JUMPDEST PUSH1 0x40 MLOAD DUP1 SWAP2 SUB SWAP1 RETURN JUMPDEST PUSH2 0x5E PUSH2 0x13B JUMP JUMPDEST PUSH1 0x40 MLOAD PUSH2 0x6B SWAP2 SWAP1 PUSH2 0x274 JUMP JUMPDEST PUSH1 0x40 MLOAD DUP1 SWAP2 SUB SWAP1 RETURN JUMPDEST PUSH1 0x60 PUSH0 PUSH1 0x5 SWAP1 DUP1 PUSH1 0x1 DUP2 SLOAD ADD DUP1 DUP3 SSTORE DUP1 SWAP2 POP POP PUSH1 0x1 SWAP1 SUB SWAP1 PUSH0 MSTORE PUSH1 0x20 PUSH0 KECCAK256 ADD PUSH0 SWAP1 SWAP2 SWAP1 SWAP2 SWAP1 SWAP2 POP SSTORE PUSH0 PUSH1 0xA SWAP1 DUP1 PUSH1 0x1 DUP2 SLOAD ADD DUP1 DUP3 SSTORE DUP1 SWAP2 POP POP PUSH1 0x1 SWAP1 SUB SWAP1 PUSH0 MSTORE PUSH1 0x20 PUSH0 KECCAK256 ADD PUSH0 SWAP1 SWAP2 SWAP1 SWAP2 SWAP1 SWAP2 POP SSTORE PUSH0 PUSH1 0x14 SWAP1 DUP1 PUSH1 0x1 DUP2 SLOAD ADD DUP1 DUP3 SSTORE DUP1 SWAP2 POP POP PUSH1 0x1 SWAP1 SUB SWAP1 PUSH0 MSTORE PUSH1 0x20 PUSH0 KECCAK256 ADD PUSH0 SWAP1 SWAP2 SWAP1 SWAP2 SWAP1 SWAP2 POP SSTORE PUSH0 DUP1 SLOAD DUP1 PUSH1 0x20 MUL PUSH1 0x20 ADD PUSH1 0x40 MLOAD SWAP1 DUP2 ADD PUSH1 0x40 MSTORE DUP1 SWAP3 SWAP2 SWAP1 DUP2 DUP2 MSTORE PUSH1 0x20 ADD DUP3 DUP1 SLOAD DUP1 ISZERO PUSH2 0x131 JUMPI PUSH1 0x20 MUL DUP3 ADD SWAP2 SWAP1 PUSH0 MSTORE PUSH1 0x20 PUSH0 KECCAK256 SWAP1 JUMPDEST DUP2 SLOAD DUP2 MSTORE PUSH1 0x20 ADD SWAP1 PUSH1 0x1 ADD SWAP1 DUP1 DUP4 GT PUSH2 0x11D JUMPI JUMPDEST POP POP POP POP POP SWAP1 POP SWAP1 JUMP JUMPDEST PUSH1 0x60 PUSH0 DUP1 SLOAD DUP1 PUSH2 0x14E JUMPI PUSH2 0x14D PUSH2 0x294 JUMP JUMPDEST JUMPDEST PUSH1 0x1 SWAP1 SUB DUP2 DUP2 SWAP1 PUSH0 MSTORE PUSH1 0x20 PUSH0 KECCAK256 ADD PUSH0 SWAP1 SSTORE SWAP1 SSTORE PUSH0 DUP1 SLOAD DUP1 PUSH1 0x20 MUL PUSH1 0x20 ADD PUSH1 0x40 MLOAD SWAP1 DUP2 ADD PUSH1 0x40 MSTORE DUP1 SWAP3 SWAP2 SWAP1 DUP2 DUP2 MSTORE PUSH1 0x20 ADD DUP3 DUP1 SLOAD DUP1 ISZERO PUSH2 0x1AA JUMPI PUSH1 0x20 MUL DUP3 ADD SWAP2 SWAP1 PUSH0 MSTORE PUSH1 0x20 PUSH0 KECCAK256 SWAP1 JUMPDEST DUP2 SLOAD DUP2 MSTORE PUSH1 0x20 ADD SWAP1 PUSH1 0x1 ADD SWAP1 DUP1 DUP4 GT PUSH2 0x196 JUMPI JUMPDEST POP POP POP POP POP SWAP1 POP SWAP1 JUMP JUMPDEST PUSH0 DUP2 MLOAD SWAP1 POP SWAP2 SWAP1 POP JUMP JUMPDEST PUSH0 DUP3 DUP3 MSTORE PUSH1 0x20 DUP3 ADD SWAP1 POP SWAP3 SWAP2 POP POP JUMP JUMPDEST PUSH0 DUP2 SWAP1 POP PUSH1 0x20 DUP3 ADD SWAP1 POP SWAP2 SWAP1 POP JUMP JUMPDEST PUSH0 DUP2 SWAP1 POP SWAP2 SWAP1 POP JUMP JUMPDEST PUSH2 0x1EF DUP2 PUSH2 0x1DD JUMP JUMPDEST DUP3 MSTORE POP POP JUMP JUMPDEST PUSH0 PUSH2 0x200 DUP4 DUP4 PUSH2 0x1E6 JUMP JUMPDEST PUSH1 0x20 DUP4 ADD SWAP1 POP SWAP3 SWAP2 POP POP JUMP JUMPDEST PUSH0 PUSH1 0x20 DUP3 ADD SWAP1 POP SWAP2 SWAP1 POP JUMP JUMPDEST PUSH0 PUSH2 0x222 DUP3 PUSH2 0x1B4 JUMP JUMPDEST PUSH2 0x22C DUP2 DUP6 PUSH2 0x1BE JUMP JUMPDEST SWAP4 POP PUSH2 0x237 DUP4 PUSH2 0x1CE JUMP JUMPDEST DUP1 PUSH0 JUMPDEST DUP4 DUP2 LT ISZERO PUSH2 0x267 JUMPI DUP2 MLOAD PUSH2 0x24E DUP9 DUP3 PUSH2 0x1F5 JUMP JUMPDEST SWAP8 POP PUSH2 0x259 DUP4 PUSH2 0x20C JUMP JUMPDEST SWAP3 POP POP PUSH1 0x1 DUP2 ADD SWAP1 POP PUSH2 0x23A JUMP JUMPDEST POP DUP6 SWAP4 POP POP POP POP SWAP3 SWAP2 POP POP JUMP JUMPDEST PUSH0 PUSH1 0x20 DUP3 ADD SWAP1 POP DUP2 DUP2 SUB PUSH0 DUP4 ADD MSTORE PUSH2 0x28C DUP2 DUP5 PUSH2 0x218 JUMP JUMPDEST SWAP1 POP SWAP3 SWAP2 POP POP JUMP JUMPDEST PUSH32 0x4E487B7100000000000000000000000000000000000000000000000000000000 PUSH0 MSTORE PUSH1 0x31 PUSH1 0x4 MSTORE PUSH1 0x24 PUSH0 REVERT INVALID LOG2 PUSH5 0x6970667358 0x22 SLT KECCAK256 0xEA MULMOD LOG1 SWAP6 CALLDATASIZE 0xB0 DUP6 EXTCODESIZE 0xC7 PUSH1 0xA1 0xC1 BLOBHASH 0xF STATICCALL 0xC 0xC4 ORIGIN PUSH27 0xCF8D3A075F7742C10AA642528664736F6C63430008190033000000 "
				},
				"gasEstimates": {
					"creation": {
						"codeDepositCost": "151800",
						"executionCost": "194",
						"totalCost": "151994"
					},
					"external": {
						"deleteLastElement()": "infinite",
						"store()": "infinite"
					}
				},
				"methodIdentifiers": {
					"deleteLastElement()": "f8bd7772",
					"store()": "975057e7"
				}
			},
			"storageLayout": {
				"storage": [
					{
						"astId": 4,
						"contract": "playground4.sol:ArraysDS",
						"label": "numbers",
						"offset": 0,
						"slot": "0",
						"type": "t_array(t_int256)dyn_storage"
					}
				],
				"types": {
					"t_array(t_int256)dyn_storage": {
						"base": "t_int256",
						"encoding": "dynamic_array",
						"label": "int256[]",
						"numberOfBytes": "32"
					},
					"t_int256": {
						"encoding": "inplace",
						"label": "int256",
						"numberOfBytes": "32"
					}
				}
			},
			"userdoc": {
				"kind": "user",
				"methods": {},
				"version": 1
			}
		}
	}
}