{
	"data": {
		"bytecode": {
			"linkReferences": {},
			"object": "6080604052348015600e575f80fd5b503360025f6101000a81548173ffffffffffffffffffffffffffffffffffffffff021916908373ffffffffffffffffffffffffffffffffffffffff160217905550610a4c8061005c5f395ff3fe60806040526004361061006f575f3560e01c80637da1365e1161004d5780637da1365e146100e1578063821805681461010b578063893d20e814610133578063f2ac0d0f1461015d5761006f565b806313af403514610073578063492bfa181461009b5780634b77e476146100c5575b5f80fd5b34801561007e575f80fd5b50610099600480360381019061009491906103ec565b610187565b005b3480156100a6575f80fd5b506100af6101ca565b6040516100bc9190610487565b60405180910390f35b6100df60048036038101906100da91906104e9565b610255565b005b3480156100ec575f80fd5b506100f56102b1565b6040516101029190610523565b60405180910390f35b348015610116575f80fd5b50610131600480360381019061012c9190610668565b6102d0565b005b34801561013e575f80fd5b5061014761033b565b60405161015491906106be565b60405180910390f35b348015610168575f80fd5b50610171610363565b60405161017e9190610523565b60405180910390f35b8060025f6101000a81548173ffffffffffffffffffffffffffffffffffffffff021916908373ffffffffffffffffffffffffffffffffffffffff16021790555050565b5f80546101d690610704565b80601f016020809104026020016040519081016040528092919081815260200182805461020290610704565b801561024d5780601f106102245761010080835404028352916020019161024d565b820191905f5260205f20905b81548152906001019060200180831161023057829003601f168201915b505050505081565b806001600d9054906101000a90046cffffffffffffffffffffffffff1661027c9190610761565b6001600d6101000a8154816cffffffffffffffffffffffffff02191690836cffffffffffffffffffffffffff16021790555050565b6001600d9054906101000a90046cffffffffffffffffffffffffff1681565b6001805f8282829054906101000a90046cffffffffffffffffffffffffff166102f99190610761565b92506101000a8154816cffffffffffffffffffffffffff02191690836cffffffffffffffffffffffffff160217905550805f90816103379190610947565b5050565b5f60025f9054906101000a900473ffffffffffffffffffffffffffffffffffffffff16905090565b60015f9054906101000a90046cffffffffffffffffffffffffff1681565b5f604051905090565b5f80fd5b5f80fd5b5f73ffffffffffffffffffffffffffffffffffffffff82169050919050565b5f6103bb82610392565b9050919050565b6103cb816103b1565b81146103d5575f80fd5b50565b5f813590506103e6816103c2565b92915050565b5f602082840312156104015761040061038a565b5b5f61040e848285016103d8565b91505092915050565b5f81519050919050565b5f82825260208201905092915050565b8281835e5f83830152505050565b5f601f19601f8301169050919050565b5f61045982610417565b6104638185610421565b9350610473818560208601610431565b61047c8161043f565b840191505092915050565b5f6020820190508181035f83015261049f818461044f565b905092915050565b5f6cffffffffffffffffffffffffff82169050919050565b6104c8816104a7565b81146104d2575f80fd5b50565b5f813590506104e3816104bf565b92915050565b5f602082840312156104fe576104fd61038a565b5b5f61050b848285016104d5565b91505092915050565b61051d816104a7565b82525050565b5f6020820190506105365f830184610514565b92915050565b5f80fd5b5f80fd5b7f4e487b71000000000000000000000000000000000000000000000000000000005f52604160045260245ffd5b61057a8261043f565b810181811067ffffffffffffffff8211171561059957610598610544565b5b80604052505050565b5f6105ab610381565b90506105b78282610571565b919050565b5f67ffffffffffffffff8211156105d6576105d5610544565b5b6105df8261043f565b9050602081019050919050565b828183375f83830152505050565b5f61060c610607846105bc565b6105a2565b90508281526020810184848401111561062857610627610540565b5b6106338482856105ec565b509392505050565b5f82601f83011261064f5761064e61053c565b5b813561065f8482602086016105fa565b91505092915050565b5f6020828403121561067d5761067c61038a565b5b5f82013567ffffffffffffffff81111561069a5761069961038e565b5b6106a68482850161063b565b91505092915050565b6106b8816103b1565b82525050565b5f6020820190506106d15f8301846106af565b92915050565b7f4e487b71000000000000000000000000000000000000000000000000000000005f52602260045260245ffd5b5f600282049050600182168061071b57607f821691505b60208210810361072e5761072d6106d7565b5b50919050565b7f4e487b71000000000000000000000000000000000000000000000000000000005f52601160045260245ffd5b5f61076b826104a7565b9150610776836104a7565b925082820190506cffffffffffffffffffffffffff81111561079b5761079a610734565b5b92915050565b5f819050815f5260205f209050919050565b5f6020601f8301049050919050565b5f82821b905092915050565b5f600883026107fd7fffffffffffffffffffffffffffffffffffffffffffffffffffffffffffffffff826107c2565b61080786836107c2565b95508019841693508086168417925050509392505050565b5f819050919050565b5f819050919050565b5f61084b6108466108418461081f565b610828565b61081f565b9050919050565b5f819050919050565b61086483610831565b61087861087082610852565b8484546107ce565b825550505050565b5f90565b61088c610880565b61089781848461085b565b505050565b5b818110156108ba576108af5f82610884565b60018101905061089d565b5050565b601f8211156108ff576108d0816107a1565b6108d9846107b3565b810160208510156108e8578190505b6108fc6108f4856107b3565b83018261089c565b50505b505050565b5f82821c905092915050565b5f61091f5f1984600802610904565b1980831691505092915050565b5f6109378383610910565b9150826002028217905092915050565b61095082610417565b67ffffffffffffffff81111561096957610968610544565b5b6109738254610704565b61097e8282856108be565b5f60209050601f8311600181146109af575f841561099d578287015190505b6109a7858261092c565b865550610a0e565b601f1984166109bd866107a1565b5f5b828110156109e4578489015182556001820191506020850194506020810190506109bf565b86831015610a0157848901516109fd601f891682610910565b8355505b6001600288020188555050505b50505050505056fea26469706673582212201b0faa784d8f42fef3fa34e37bdaf953da75d825d5142a51476c781d80b6160c64736f6c63430008190033",
			"opcodes": "PUSH1 0x80 PUSH1 0x40 MSTORE CALLVALUE DUP1 ISZERO PUSH1 0xE JUMPI PUSH0 DUP1 REVERT JUMPDEST POP CALLER PUSH1 0x2 PUSH0 PUSH2 0x100 EXP DUP2 SLOAD DUP2 PUSH20 0xFFFFFFFFFFFFFFFFFFFFFFFFFFFFFFFFFFFFFFFF MUL NOT AND SWAP1 DUP4 PUSH20 0xFFFFFFFFFFFFFFFFFFFFFFFFFFFFFFFFFFFFFFFF AND MUL OR SWAP1 SSTORE POP PUSH2 0xA4C DUP1 PUSH2 0x5C PUSH0 CODECOPY PUSH0 RETURN INVALID PUSH1 0x80 PUSH1 0x40 MSTORE PUSH1 0x4 CALLDATASIZE LT PUSH2 0x6F JUMPI PUSH0 CALLDATALOAD PUSH1 0xE0 SHR DUP1 PUSH4 0x7DA1365E GT PUSH2 0x4D JUMPI DUP1 PUSH4 0x7DA1365E EQ PUSH2 0xE1 JUMPI DUP1 PUSH4 0x82180568 EQ PUSH2 0x10B JUMPI DUP1 PUSH4 0x893D20E8 EQ PUSH2 0x133 JUMPI DUP1 PUSH4 0xF2AC0D0F EQ PUSH2 0x15D JUMPI PUSH2 0x6F JUMP JUMPDEST DUP1 PUSH4 0x13AF4035 EQ PUSH2 0x73 JUMPI DUP1 PUSH4 0x492BFA18 EQ PUSH2 0x9B JUMPI DUP1 PUSH4 0x4B77E476 EQ PUSH2 0xC5 JUMPI JUMPDEST PUSH0 DUP1 REVERT JUMPDEST CALLVALUE DUP1 ISZERO PUSH2 0x7E JUMPI PUSH0 DUP1 REVERT JUMPDEST POP PUSH2 0x99 PUSH1 0x4 DUP1 CALLDATASIZE SUB DUP2 ADD SWAP1 PUSH2 0x94 SWAP2 SWAP1 PUSH2 0x3EC JUMP JUMPDEST PUSH2 0x187 JUMP JUMPDEST STOP JUMPDEST CALLVALUE DUP1 ISZERO PUSH2 0xA6 JUMPI PUSH0 DUP1 REVERT JUMPDEST POP PUSH2 0xAF PUSH2 0x1CA JUMP JUMPDEST PUSH1 0x40 MLOAD PUSH2 0xBC SWAP2 SWAP1 PUSH2 0x487 JUMP JUMPDEST PUSH1 0x40 MLOAD DUP1 SWAP2 SUB SWAP1 RETURN JUMPDEST PUSH2 0xDF PUSH1 0x4 DUP1 CALLDATASIZE SUB DUP2 ADD SWAP1 PUSH2 0xDA SWAP2 SWAP1 PUSH2 0x4E9 JUMP JUMPDEST PUSH2 0x255 JUMP JUMPDEST STOP JUMPDEST CALLVALUE DUP1 ISZERO PUSH2 0xEC JUMPI PUSH0 DUP1 REVERT JUMPDEST POP PUSH2 0xF5 PUSH2 0x2B1 JUMP JUMPDEST PUSH1 0x40 MLOAD PUSH2 0x102 SWAP2 SWAP1 PUSH2 0x523 JUMP JUMPDEST PUSH1 0x40 MLOAD DUP1 SWAP2 SUB SWAP1 RETURN JUMPDEST CALLVALUE DUP1 ISZERO PUSH2 0x116 JUMPI PUSH0 DUP1 REVERT JUMPDEST POP PUSH2 0x131 PUSH1 0x4 DUP1 CALLDATASIZE SUB DUP2 ADD SWAP1 PUSH2 0x12C SWAP2 SWAP1 PUSH2 0x668 JUMP JUMPDEST PUSH2 0x2D0 JUMP JUMPDEST STOP JUMPDEST CALLVALUE DUP1 ISZERO PUSH2 0x13E JUMPI PUSH0 DUP1 REVERT JUMPDEST POP PUSH2 0x147 PUSH2 0x33B JUMP JUMPDEST PUSH1 0x40 MLOAD PUSH2 0x154 SWAP2 SWAP1 PUSH2 0x6BE JUMP JUMPDEST PUSH1 0x40 MLOAD DUP1 SWAP2 SUB SWAP1 RETURN JUMPDEST CALLVALUE DUP1 ISZERO PUSH2 0x168 JUMPI PUSH0 DUP1 REVERT JUMPDEST POP PUSH2 0x171 PUSH2 0x363 JUMP JUMPDEST PUSH1 0x40 MLOAD PUSH2 0x17E SWAP2 SWAP1 PUSH2 0x523 JUMP JUMPDEST PUSH1 0x40 MLOAD DUP1 SWAP2 SUB SWAP1 RETURN JUMPDEST DUP1 PUSH1 0x2 PUSH0 PUSH2 0x100 EXP DUP2 SLOAD DUP2 PUSH20 0xFFFFFFFFFFFFFFFFFFFFFFFFFFFFFFFFFFFFFFFF MUL NOT AND SWAP1 DUP4 PUSH20 0xFFFFFFFFFFFFFFFFFFFFFFFFFFFFFFFFFFFFFFFF AND MUL OR SWAP1 SSTORE POP POP JUMP JUMPDEST PUSH0 DUP1 SLOAD PUSH2 0x1D6 SWAP1 PUSH2 0x704 JUMP JUMPDEST DUP1 PUSH1 0x1F ADD PUSH1 0x20 DUP1 SWAP2 DIV MUL PUSH1 0x20 ADD PUSH1 0x40 MLOAD SWAP1 DUP2 ADD PUSH1 0x40 MSTORE DUP1 SWAP3 SWAP2 SWAP1 DUP2 DUP2 MSTORE PUSH1 0x20 ADD DUP3 DUP1 SLOAD PUSH2 0x202 SWAP1 PUSH2 0x704 JUMP JUMPDEST DUP1 ISZERO PUSH2 0x24D JUMPI DUP1 PUSH1 0x1F LT PUSH2 0x224 JUMPI PUSH2 0x100 DUP1 DUP4 SLOAD DIV MUL DUP4 MSTORE SWAP2 PUSH1 0x20 ADD SWAP2 PUSH2 0x24D JUMP JUMPDEST DUP3 ADD SWAP2 SWAP1 PUSH0 MSTORE PUSH1 0x20 PUSH0 KECCAK256 SWAP1 JUMPDEST DUP2 SLOAD DUP2 MSTORE SWAP1 PUSH1 0x1 ADD SWAP1 PUSH1 0x20 ADD DUP1 DUP4 GT PUSH2 0x230 JUMPI DUP3 SWAP1 SUB PUSH1 0x1F AND DUP3 ADD SWAP2 JUMPDEST POP POP POP POP POP DUP2 JUMP JUMPDEST DUP1 PUSH1 0x1 PUSH1 0xD SWAP1 SLOAD SWAP1 PUSH2 0x100 EXP SWAP1 DIV PUSH13 0xFFFFFFFFFFFFFFFFFFFFFFFFFF AND PUSH2 0x27C SWAP2 SWAP1 PUSH2 0x761 JUMP JUMPDEST PUSH1 0x1 PUSH1 0xD PUSH2 0x100 EXP DUP2 SLOAD DUP2 PUSH13 0xFFFFFFFFFFFFFFFFFFFFFFFFFF MUL NOT AND SWAP1 DUP4 PUSH13 0xFFFFFFFFFFFFFFFFFFFFFFFFFF AND MUL OR SWAP1 SSTORE POP POP JUMP JUMPDEST PUSH1 0x1 PUSH1 0xD SWAP1 SLOAD SWAP1 PUSH2 0x100 EXP SWAP1 DIV PUSH13 0xFFFFFFFFFFFFFFFFFFFFFFFFFF AND DUP2 JUMP JUMPDEST PUSH1 0x1 DUP1 PUSH0 DUP3 DUP3 DUP3 SWAP1 SLOAD SWAP1 PUSH2 0x100 EXP SWAP1 DIV PUSH13 0xFFFFFFFFFFFFFFFFFFFFFFFFFF AND PUSH2 0x2F9 SWAP2 SWAP1 PUSH2 0x761 JUMP JUMPDEST SWAP3 POP PUSH2 0x100 EXP DUP2 SLOAD DUP2 PUSH13 0xFFFFFFFFFFFFFFFFFFFFFFFFFF MUL NOT AND SWAP1 DUP4 PUSH13 0xFFFFFFFFFFFFFFFFFFFFFFFFFF AND MUL OR SWAP1 SSTORE POP DUP1 PUSH0 SWAP1 DUP2 PUSH2 0x337 SWAP2 SWAP1 PUSH2 0x947 JUMP JUMPDEST POP POP JUMP JUMPDEST PUSH0 PUSH1 0x2 PUSH0 SWAP1 SLOAD SWAP1 PUSH2 0x100 EXP SWAP1 DIV PUSH20 0xFFFFFFFFFFFFFFFFFFFFFFFFFFFFFFFFFFFFFFFF AND SWAP1 POP SWAP1 JUMP JUMPDEST PUSH1 0x1 PUSH0 SWAP1 SLOAD SWAP1 PUSH2 0x100 EXP SWAP1 DIV PUSH13 0xFFFFFFFFFFFFFFFFFFFFFFFFFF AND DUP2 JUMP JUMPDEST PUSH0 PUSH1 0x40 MLOAD SWAP1 POP SWAP1 JUMP JUMPDEST PUSH0 DUP1 REVERT JUMPDEST PUSH0 DUP1 REVERT JUMPDEST PUSH0 PUSH20 0xFFFFFFFFFFFFFFFFFFFFFFFFFFFFFFFFFFFFFFFF DUP3 AND SWAP1 POP SWAP2 SWAP1 POP JUMP JUMPDEST PUSH0 PUSH2 0x3BB DUP3 PUSH2 0x392 JUMP JUMPDEST SWAP1 POP SWAP2 SWAP1 POP JUMP JUMPDEST PUSH2 0x3CB DUP2 PUSH2 0x3B1 JUMP JUMPDEST DUP2 EQ PUSH2 0x3D5 JUMPI PUSH0 DUP1 REVERT JUMPDEST POP JUMP JUMPDEST PUSH0 DUP2 CALLDATALOAD SWAP1 POP PUSH2 0x3E6 DUP2 PUSH2 0x3C2 JUMP JUMPDEST SWAP3 SWAP2 POP POP JUMP JUMPDEST PUSH0 PUSH1 0x20 DUP3 DUP5 SUB SLT ISZERO PUSH2 0x401 JUMPI PUSH2 0x400 PUSH2 0x38A JUMP JUMPDEST JUMPDEST PUSH0 PUSH2 0x40E DUP5 DUP3 DUP6 ADD PUSH2 0x3D8 JUMP JUMPDEST SWAP2 POP POP SWAP3 SWAP2 POP POP JUMP JUMPDEST PUSH0 DUP2 MLOAD SWAP1 POP SWAP2 SWAP1 POP JUMP JUMPDEST PUSH0 DUP3 DUP3 MSTORE PUSH1 0x20 DUP3 ADD SWAP1 POP SWAP3 SWAP2 POP POP JUMP JUMPDEST DUP3 DUP2 DUP4 MCOPY PUSH0 DUP4 DUP4 ADD MSTORE POP POP POP JUMP JUMPDEST PUSH0 PUSH1 0x1F NOT PUSH1 0x1F DUP4 ADD AND SWAP1 POP SWAP2 SWAP1 POP JUMP JUMPDEST PUSH0 PUSH2 0x459 DUP3 PUSH2 0x417 JUMP JUMPDEST PUSH2 0x463 DUP2 DUP6 PUSH2 0x421 JUMP JUMPDEST SWAP4 POP PUSH2 0x473 DUP2 DUP6 PUSH1 0x20 DUP7 ADD PUSH2 0x431 JUMP JUMPDEST PUSH2 0x47C DUP2 PUSH2 0x43F JUMP JUMPDEST DUP5 ADD SWAP2 POP POP SWAP3 SWAP2 POP POP JUMP JUMPDEST PUSH0 PUSH1 0x20 DUP3 ADD SWAP1 POP DUP2 DUP2 SUB PUSH0 DUP4 ADD MSTORE PUSH2 0x49F DUP2 DUP5 PUSH2 0x44F JUMP JUMPDEST SWAP1 POP SWAP3 SWAP2 POP POP JUMP JUMPDEST PUSH0 PUSH13 0xFFFFFFFFFFFFFFFFFFFFFFFFFF DUP3 AND SWAP1 POP SWAP2 SWAP1 POP JUMP JUMPDEST PUSH2 0x4C8 DUP2 PUSH2 0x4A7 JUMP JUMPDEST DUP2 EQ PUSH2 0x4D2 JUMPI PUSH0 DUP1 REVERT JUMPDEST POP JUMP JUMPDEST PUSH0 DUP2 CALLDATALOAD SWAP1 POP PUSH2 0x4E3 DUP2 PUSH2 0x4BF JUMP JUMPDEST SWAP3 SWAP2 POP POP JUMP JUMPDEST PUSH0 PUSH1 0x20 DUP3 DUP5 SUB SLT ISZERO PUSH2 0x4FE JUMPI PUSH2 0x4FD PUSH2 0x38A JUMP JUMPDEST JUMPDEST PUSH0 PUSH2 0x50B DUP5 DUP3 DUP6 ADD PUSH2 0x4D5 JUMP JUMPDEST SWAP2 POP POP SWAP3 SWAP2 POP POP JUMP JUMPDEST PUSH2 0x51D DUP2 PUSH2 0x4A7 JUMP JUMPDEST DUP3 MSTORE POP POP JUMP JUMPDEST PUSH0 PUSH1 0x20 DUP3 ADD SWAP1 POP PUSH2 0x536 PUSH0 DUP4 ADD DUP5 PUSH2 0x514 JUMP JUMPDEST SWAP3 SWAP2 POP POP JUMP JUMPDEST PUSH0 DUP1 REVERT JUMPDEST PUSH0 DUP1 REVERT JUMPDEST PUSH32 0x4E487B7100000000000000000000000000000000000000000000000000000000 PUSH0 MSTORE PUSH1 0x41 PUSH1 0x4 MSTORE PUSH1 0x24 PUSH0 REVERT JUMPDEST PUSH2 0x57A DUP3 PUSH2 0x43F JUMP JUMPDEST DUP2 ADD DUP2 DUP2 LT PUSH8 0xFFFFFFFFFFFFFFFF DUP3 GT OR ISZERO PUSH2 0x599 JUMPI PUSH2 0x598 PUSH2 0x544 JUMP JUMPDEST JUMPDEST DUP1 PUSH1 0x40 MSTORE POP POP POP JUMP JUMPDEST PUSH0 PUSH2 0x5AB PUSH2 0x381 JUMP JUMPDEST SWAP1 POP PUSH2 0x5B7 DUP3 DUP3 PUSH2 0x571 JUMP JUMPDEST SWAP2 SWAP1 POP JUMP JUMPDEST PUSH0 PUSH8 0xFFFFFFFFFFFFFFFF DUP3 GT ISZERO PUSH2 0x5D6 JUMPI PUSH2 0x5D5 PUSH2 0x544 JUMP JUMPDEST JUMPDEST PUSH2 0x5DF DUP3 PUSH2 0x43F JUMP JUMPDEST SWAP1 POP PUSH1 0x20 DUP2 ADD SWAP1 POP SWAP2 SWAP1 POP JUMP JUMPDEST DUP3 DUP2 DUP4 CALLDATACOPY PUSH0 DUP4 DUP4 ADD MSTORE POP POP POP JUMP JUMPDEST PUSH0 PUSH2 0x60C PUSH2 0x607 DUP5 PUSH2 0x5BC JUMP JUMPDEST PUSH2 0x5A2 JUMP JUMPDEST SWAP1 POP DUP3 DUP2 MSTORE PUSH1 0x20 DUP2 ADD DUP5 DUP5 DUP5 ADD GT ISZERO PUSH2 0x628 JUMPI PUSH2 0x627 PUSH2 0x540 JUMP JUMPDEST JUMPDEST PUSH2 0x633 DUP5 DUP3 DUP6 PUSH2 0x5EC JUMP JUMPDEST POP SWAP4 SWAP3 POP POP POP JUMP JUMPDEST PUSH0 DUP3 PUSH1 0x1F DUP4 ADD SLT PUSH2 0x64F JUMPI PUSH2 0x64E PUSH2 0x53C JUMP JUMPDEST JUMPDEST DUP2 CALLDATALOAD PUSH2 0x65F DUP5 DUP3 PUSH1 0x20 DUP7 ADD PUSH2 0x5FA JUMP JUMPDEST SWAP2 POP POP SWAP3 SWAP2 POP POP JUMP JUMPDEST PUSH0 PUSH1 0x20 DUP3 DUP5 SUB SLT ISZERO PUSH2 0x67D JUMPI PUSH2 0x67C PUSH2 0x38A JUMP JUMPDEST JUMPDEST PUSH0 DUP3 ADD CALLDATALOAD PUSH8 0xFFFFFFFFFFFFFFFF DUP2 GT ISZERO PUSH2 0x69A JUMPI PUSH2 0x699 PUSH2 0x38E JUMP JUMPDEST JUMPDEST PUSH2 0x6A6 DUP5 DUP3 DUP6 ADD PUSH2 0x63B JUMP JUMPDEST SWAP2 POP POP SWAP3 SWAP2 POP POP JUMP JUMPDEST PUSH2 0x6B8 DUP2 PUSH2 0x3B1 JUMP JUMPDEST DUP3 MSTORE POP POP JUMP JUMPDEST PUSH0 PUSH1 0x20 DUP3 ADD SWAP1 POP PUSH2 0x6D1 PUSH0 DUP4 ADD DUP5 PUSH2 0x6AF JUMP JUMPDEST SWAP3 SWAP2 POP POP JUMP JUMPDEST PUSH32 0x4E487B7100000000000000000000000000000000000000000000000000000000 PUSH0 MSTORE PUSH1 0x22 PUSH1 0x4 MSTORE PUSH1 0x24 PUSH0 REVERT JUMPDEST PUSH0 PUSH1 0x2 DUP3 DIV SWAP1 POP PUSH1 0x1 DUP3 AND DUP1 PUSH2 0x71B JUMPI PUSH1 0x7F DUP3 AND SWAP2 POP JUMPDEST PUSH1 0x20 DUP3 LT DUP2 SUB PUSH2 0x72E JUMPI PUSH2 0x72D PUSH2 0x6D7 JUMP JUMPDEST JUMPDEST POP SWAP2 SWAP1 POP JUMP JUMPDEST PUSH32 0x4E487B7100000000000000000000000000000000000000000000000000000000 PUSH0 MSTORE PUSH1 0x11 PUSH1 0x4 MSTORE PUSH1 0x24 PUSH0 REVERT JUMPDEST PUSH0 PUSH2 0x76B DUP3 PUSH2 0x4A7 JUMP JUMPDEST SWAP2 POP PUSH2 0x776 DUP4 PUSH2 0x4A7 JUMP JUMPDEST SWAP3 POP DUP3 DUP3 ADD SWAP1 POP PUSH13 0xFFFFFFFFFFFFFFFFFFFFFFFFFF DUP2 GT ISZERO PUSH2 0x79B JUMPI PUSH2 0x79A PUSH2 0x734 JUMP JUMPDEST JUMPDEST SWAP3 SWAP2 POP POP JUMP JUMPDEST PUSH0 DUP2 SWAP1 POP DUP2 PUSH0 MSTORE PUSH1 0x20 PUSH0 KECCAK256 SWAP1 POP SWAP2 SWAP1 POP JUMP JUMPDEST PUSH0 PUSH1 0x20 PUSH1 0x1F DUP4 ADD DIV SWAP1 POP SWAP2 SWAP1 POP JUMP JUMPDEST PUSH0 DUP3 DUP3 SHL SWAP1 POP SWAP3 SWAP2 POP POP JUMP JUMPDEST PUSH0 PUSH1 0x8 DUP4 MUL PUSH2 0x7FD PUSH32 0xFFFFFFFFFFFFFFFFFFFFFFFFFFFFFFFFFFFFFFFFFFFFFFFFFFFFFFFFFFFFFFFF DUP3 PUSH2 0x7C2 JUMP JUMPDEST PUSH2 0x807 DUP7 DUP4 PUSH2 0x7C2 JUMP JUMPDEST SWAP6 POP DUP1 NOT DUP5 AND SWAP4 POP DUP1 DUP7 AND DUP5 OR SWAP3 POP POP POP SWAP4 SWAP3 POP POP POP JUMP JUMPDEST PUSH0 DUP2 SWAP1 POP SWAP2 SWAP1 POP JUMP JUMPDEST PUSH0 DUP2 SWAP1 POP SWAP2 SWAP1 POP JUMP JUMPDEST PUSH0 PUSH2 0x84B PUSH2 0x846 PUSH2 0x841 DUP5 PUSH2 0x81F JUMP JUMPDEST PUSH2 0x828 JUMP JUMPDEST PUSH2 0x81F JUMP JUMPDEST SWAP1 POP SWAP2 SWAP1 POP JUMP JUMPDEST PUSH0 DUP2 SWAP1 POP SWAP2 SWAP1 POP JUMP JUMPDEST PUSH2 0x864 DUP4 PUSH2 0x831 JUMP JUMPDEST PUSH2 0x878 PUSH2 0x870 DUP3 PUSH2 0x852 JUMP JUMPDEST DUP5 DUP5 SLOAD PUSH2 0x7CE JUMP JUMPDEST DUP3 SSTORE POP POP POP POP JUMP JUMPDEST PUSH0 SWAP1 JUMP JUMPDEST PUSH2 0x88C PUSH2 0x880 JUMP JUMPDEST PUSH2 0x897 DUP2 DUP5 DUP5 PUSH2 0x85B JUMP JUMPDEST POP POP POP JUMP JUMPDEST JUMPDEST DUP2 DUP2 LT ISZERO PUSH2 0x8BA JUMPI PUSH2 0x8AF PUSH0 DUP3 PUSH2 0x884 JUMP JUMPDEST PUSH1 0x1 DUP2 ADD SWAP1 POP PUSH2 0x89D JUMP JUMPDEST POP POP JUMP JUMPDEST PUSH1 0x1F DUP3 GT ISZERO PUSH2 0x8FF JUMPI PUSH2 0x8D0 DUP2 PUSH2 0x7A1 JUMP JUMPDEST PUSH2 0x8D9 DUP5 PUSH2 0x7B3 JUMP JUMPDEST DUP2 ADD PUSH1 0x20 DUP6 LT ISZERO PUSH2 0x8E8 JUMPI DUP2 SWAP1 POP JUMPDEST PUSH2 0x8FC PUSH2 0x8F4 DUP6 PUSH2 0x7B3 JUMP JUMPDEST DUP4 ADD DUP3 PUSH2 0x89C JUMP JUMPDEST POP POP JUMPDEST POP POP POP JUMP JUMPDEST PUSH0 DUP3 DUP3 SHR SWAP1 POP SWAP3 SWAP2 POP POP JUMP JUMPDEST PUSH0 PUSH2 0x91F PUSH0 NOT DUP5 PUSH1 0x8 MUL PUSH2 0x904 JUMP JUMPDEST NOT DUP1 DUP4 AND SWAP2 POP POP SWAP3 SWAP2 POP POP JUMP JUMPDEST PUSH0 PUSH2 0x937 DUP4 DUP4 PUSH2 0x910 JUMP JUMPDEST SWAP2 POP DUP3 PUSH1 0x2 MUL DUP3 OR SWAP1 POP SWAP3 SWAP2 POP POP JUMP JUMPDEST PUSH2 0x950 DUP3 PUSH2 0x417 JUMP JUMPDEST PUSH8 0xFFFFFFFFFFFFFFFF DUP2 GT ISZERO PUSH2 0x969 JUMPI PUSH2 0x968 PUSH2 0x544 JUMP JUMPDEST JUMPDEST PUSH2 0x973 DUP3 SLOAD PUSH2 0x704 JUMP JUMPDEST PUSH2 0x97E DUP3 DUP3 DUP6 PUSH2 0x8BE JUMP JUMPDEST PUSH0 PUSH1 0x20 SWAP1 POP PUSH1 0x1F DUP4 GT PUSH1 0x1 DUP2 EQ PUSH2 0x9AF JUMPI PUSH0 DUP5 ISZERO PUSH2 0x99D JUMPI DUP3 DUP8 ADD MLOAD SWAP1 POP JUMPDEST PUSH2 0x9A7 DUP6 DUP3 PUSH2 0x92C JUMP JUMPDEST DUP7 SSTORE POP PUSH2 0xA0E JUMP JUMPDEST PUSH1 0x1F NOT DUP5 AND PUSH2 0x9BD DUP7 PUSH2 0x7A1 JUMP JUMPDEST PUSH0 JUMPDEST DUP3 DUP2 LT ISZERO PUSH2 0x9E4 JUMPI DUP5 DUP10 ADD MLOAD DUP3 SSTORE PUSH1 0x1 DUP3 ADD SWAP2 POP PUSH1 0x20 DUP6 ADD SWAP5 POP PUSH1 0x20 DUP2 ADD SWAP1 POP PUSH2 0x9BF JUMP JUMPDEST DUP7 DUP4 LT ISZERO PUSH2 0xA01 JUMPI DUP5 DUP10 ADD MLOAD PUSH2 0x9FD PUSH1 0x1F DUP10 AND DUP3 PUSH2 0x910 JUMP JUMPDEST DUP4 SSTORE POP JUMPDEST PUSH1 0x1 PUSH1 0x2 DUP9 MUL ADD DUP9 SSTORE POP POP POP JUMPDEST POP POP POP POP POP POP JUMP INVALID LOG2 PUSH5 0x6970667358 0x22 SLT KECCAK256 SHL 0xF 0xAA PUSH25 0x4D8F42FEF3FA34E37BDAF953DA75D825D5142A51476C781D80 0xB6 AND 0xC PUSH5 0x736F6C6343 STOP ADDMOD NOT STOP CALLER "
		},
		"gasEstimates": {
			"creation": {
				"codeDepositCost": "527200",
				"executionCost": "24825",
				"totalCost": "552025"
			},
			"external": {
				"acc()": "2517",
				"customOperation(uint104)": "infinite",
				"getOwner()": "2559",
				"myString()": "infinite",
				"myStringSetCounter()": "2532",
				"setMyString(string)": "infinite",
				"setOwner(address)": "24716"
			}
		},
		"methodIdentifiers": {
			"acc()": "7da1365e",
			"customOperation(uint104)": "4b77e476",
			"getOwner()": "893d20e8",
			"myString()": "492bfa18",
			"myStringSetCounter()": "f2ac0d0f",
			"setMyString(string)": "82180568",
			"setOwner(address)": "13af4035"
		}
	},
	"abi": [
		{
			"inputs": [],
			"stateMutability": "nonpayable",
			"type": "constructor"
		},
		{
			"inputs": [],
			"name": "acc",
			"outputs": [
				{
					"internalType": "uint104",
					"name": "",
					"type": "uint104"
				}
			],
			"stateMutability": "view",
			"type": "function"
		},
		{
			"inputs": [
				{
					"internalType": "uint104",
					"name": "n",
					"type": "uint104"
				}
			],
			"name": "customOperation",
			"outputs": [],
			"stateMutability": "payable",
			"type": "function"
		},
		{
			"inputs": [],
			"name": "getOwner",
			"outputs": [
				{
					"internalType": "address",
					"name": "",
					"type": "address"
				}
			],
			"stateMutability": "view",
			"type": "function"
		},
		{
			"inputs": [],
			"name": "myString",
			"outputs": [
				{
					"internalType": "string",
					"name": "",
					"type": "string"
				}
			],
			"stateMutability": "view",
			"type": "function"
		},
		{
			"inputs": [],
			"name": "myStringSetCounter",
			"outputs": [
				{
					"internalType": "uint104",
					"name": "",
					"type": "uint104"
				}
			],
			"stateMutability": "view",
			"type": "function"
		},
		{
			"inputs": [
				{
					"internalType": "string",
					"name": "str",
					"type": "string"
				}
			],
			"name": "setMyString",
			"outputs": [],
			"stateMutability": "nonpayable",
			"type": "function"
		},
		{
			"inputs": [
				{
					"internalType": "address",
					"name": "newOwner",
					"type": "address"
				}
			],
			"name": "setOwner",
			"outputs": [],
			"stateMutability": "nonpayable",
			"type": "function"
		}
	]
}